{
	"contracts/VulnerableContract.sol": {
		"VulnerableContract": {
			"abi": [
				{
					"inputs": [
						{
							"internalType": "address",
							"name": "",
							"type": "address"
						}
					],
					"name": "addressToValue",
					"outputs": [
						{
							"internalType": "uint256",
							"name": "",
							"type": "uint256"
						}
					],
					"stateMutability": "view",
					"type": "function"
				},
				{
					"inputs": [],
					"name": "deposit",
					"outputs": [],
					"stateMutability": "payable",
					"type": "function"
				},
				{
					"inputs": [],
					"name": "withdraw",
					"outputs": [],
					"stateMutability": "nonpayable",
					"type": "function"
				}
			],
			"devdoc": {
				"kind": "dev",
				"methods": {},
				"version": 1
			},
			"evm": {
				"assembly": "    /* \"contracts/VulnerableContract.sol\":55:585  contract VulnerableContract {... */\n  mstore(0x40, 0x80)\n  callvalue\n  dup1\n  iszero\n  tag_1\n  jumpi\n  0x00\n  dup1\n  revert\ntag_1:\n  pop\n  dataSize(sub_0)\n  dup1\n  dataOffset(sub_0)\n  0x00\n  codecopy\n  0x00\n  return\nstop\n\nsub_0: assembly {\n        /* \"contracts/VulnerableContract.sol\":55:585  contract VulnerableContract {... */\n      mstore(0x40, 0x80)\n      jumpi(tag_1, lt(calldatasize, 0x04))\n      shr(0xe0, calldataload(0x00))\n      dup1\n      0x3ccfd60b\n      eq\n      tag_2\n      jumpi\n      dup1\n      0xbff2e095\n      eq\n      tag_3\n      jumpi\n      dup1\n      0xd0e30db0\n      eq\n      tag_4\n      jumpi\n    tag_1:\n      0x00\n      dup1\n      revert\n        /* \"contracts/VulnerableContract.sol\":241:581  function withdraw() public {... */\n    tag_2:\n      callvalue\n      dup1\n      iszero\n      tag_5\n      jumpi\n      0x00\n      dup1\n      revert\n    tag_5:\n      pop\n      tag_6\n      tag_7\n      jump\t// in\n    tag_6:\n      stop\n        /* \"contracts/VulnerableContract.sol\":90:139  mapping(address => uint256) public addressToValue */\n    tag_3:\n      callvalue\n      dup1\n      iszero\n      tag_8\n      jumpi\n      0x00\n      dup1\n      revert\n    tag_8:\n      pop\n      tag_9\n      0x04\n      dup1\n      calldatasize\n      sub\n      dup2\n      add\n      swap1\n      tag_10\n      swap2\n      swap1\n      tag_11\n      jump\t// in\n    tag_10:\n      tag_12\n      jump\t// in\n    tag_9:\n      mload(0x40)\n      tag_13\n      swap2\n      swap1\n      tag_14\n      jump\t// in\n    tag_13:\n      mload(0x40)\n      dup1\n      swap2\n      sub\n      swap1\n      return\n        /* \"contracts/VulnerableContract.sol\":146:235  function deposit() public payable {... */\n    tag_4:\n      tag_15\n      tag_16\n      jump\t// in\n    tag_15:\n      stop\n        /* \"contracts/VulnerableContract.sol\":241:581  function withdraw() public {... */\n    tag_7:\n        /* \"contracts/VulnerableContract.sol\":278:293  uint256 balance */\n      0x00\n        /* \"contracts/VulnerableContract.sol\":296:310  addressToValue */\n      dup1\n        /* \"contracts/VulnerableContract.sol\":296:322  addressToValue[msg.sender] */\n      0x00\n        /* \"contracts/VulnerableContract.sol\":311:321  msg.sender */\n      caller\n        /* \"contracts/VulnerableContract.sol\":296:322  addressToValue[msg.sender] */\n      0xffffffffffffffffffffffffffffffffffffffff\n      and\n      0xffffffffffffffffffffffffffffffffffffffff\n      and\n      dup2\n      mstore\n      0x20\n      add\n      swap1\n      dup2\n      mstore\n      0x20\n      add\n      0x00\n      keccak256\n      sload\n        /* \"contracts/VulnerableContract.sol\":278:322  uint256 balance = addressToValue[msg.sender] */\n      swap1\n      pop\n        /* \"contracts/VulnerableContract.sol\":348:349  0 */\n      0x00\n        /* \"contracts/VulnerableContract.sol\":338:345  balance */\n      dup2\n        /* \"contracts/VulnerableContract.sol\":338:349  balance > 0 */\n      gt\n        /* \"contracts/VulnerableContract.sol\":332:403  if (!(balance > 0)) {... */\n      tag_18\n      jumpi\n        /* \"contracts/VulnerableContract.sol\":366:392  revert(\"Must have funds!\") */\n      mload(0x40)\n      0x08c379a000000000000000000000000000000000000000000000000000000000\n      dup2\n      mstore\n      0x04\n      add\n      tag_19\n      swap1\n      tag_20\n      jump\t// in\n    tag_19:\n      mload(0x40)\n      dup1\n      swap2\n      sub\n      swap1\n      revert\n        /* \"contracts/VulnerableContract.sol\":332:403  if (!(balance > 0)) {... */\n    tag_18:\n        /* \"contracts/VulnerableContract.sol\":413:422  bool sent */\n      0x00\n        /* \"contracts/VulnerableContract.sol\":428:438  msg.sender */\n      caller\n        /* \"contracts/VulnerableContract.sol\":428:443  msg.sender.call */\n      0xffffffffffffffffffffffffffffffffffffffff\n      and\n        /* \"contracts/VulnerableContract.sol\":451:458  balance */\n      dup3\n        /* \"contracts/VulnerableContract.sol\":428:463  msg.sender.call{value: balance}(\"\") */\n      mload(0x40)\n      tag_21\n      swap1\n      tag_22\n      jump\t// in\n    tag_21:\n      0x00\n      mload(0x40)\n      dup1\n      dup4\n      sub\n      dup2\n      dup6\n      dup8\n      gas\n      call\n      swap3\n      pop\n      pop\n      pop\n      returndatasize\n      dup1\n      0x00\n      dup2\n      eq\n      tag_25\n      jumpi\n      mload(0x40)\n      swap2\n      pop\n      and(add(returndatasize, 0x3f), not(0x1f))\n      dup3\n      add\n      0x40\n      mstore\n      returndatasize\n      dup3\n      mstore\n      returndatasize\n      0x00\n      0x20\n      dup5\n      add\n      returndatacopy\n      jump(tag_24)\n    tag_25:\n      0x60\n      swap2\n      pop\n    tag_24:\n      pop\n        /* \"contracts/VulnerableContract.sol\":412:463  (bool sent, ) = msg.sender.call{value: balance}(\"\") */\n      pop\n      swap1\n      pop\n        /* \"contracts/VulnerableContract.sol\":478:482  sent */\n      dup1\n        /* \"contracts/VulnerableContract.sol\":473:535  if (!sent) {... */\n      tag_26\n      jumpi\n        /* \"contracts/VulnerableContract.sol\":498:524  revert(\"Transfer failed!\") */\n      mload(0x40)\n      0x08c379a000000000000000000000000000000000000000000000000000000000\n      dup2\n      mstore\n      0x04\n      add\n      tag_27\n      swap1\n      tag_28\n      jump\t// in\n    tag_27:\n      mload(0x40)\n      dup1\n      swap2\n      sub\n      swap1\n      revert\n        /* \"contracts/VulnerableContract.sol\":473:535  if (!sent) {... */\n    tag_26:\n        /* \"contracts/VulnerableContract.sol\":573:574  0 */\n      0x00\n        /* \"contracts/VulnerableContract.sol\":544:558  addressToValue */\n      dup1\n        /* \"contracts/VulnerableContract.sol\":544:570  addressToValue[msg.sender] */\n      0x00\n        /* \"contracts/VulnerableContract.sol\":559:569  msg.sender */\n      caller\n        /* \"contracts/VulnerableContract.sol\":544:570  addressToValue[msg.sender] */\n      0xffffffffffffffffffffffffffffffffffffffff\n      and\n      0xffffffffffffffffffffffffffffffffffffffff\n      and\n      dup2\n      mstore\n      0x20\n      add\n      swap1\n      dup2\n      mstore\n      0x20\n      add\n      0x00\n      keccak256\n        /* \"contracts/VulnerableContract.sol\":544:574  addressToValue[msg.sender] = 0 */\n      dup2\n      swap1\n      sstore\n      pop\n        /* \"contracts/VulnerableContract.sol\":268:581  {... */\n      pop\n      pop\n        /* \"contracts/VulnerableContract.sol\":241:581  function withdraw() public {... */\n      jump\t// out\n        /* \"contracts/VulnerableContract.sol\":90:139  mapping(address => uint256) public addressToValue */\n    tag_12:\n      mstore(0x20, 0x00)\n      dup1\n      0x00\n      mstore\n      keccak256(0x00, 0x40)\n      0x00\n      swap2\n      pop\n      swap1\n      pop\n      sload\n      dup2\n      jump\t// out\n        /* \"contracts/VulnerableContract.sol\":146:235  function deposit() public payable {... */\n    tag_16:\n        /* \"contracts/VulnerableContract.sol\":219:228  msg.value */\n      callvalue\n        /* \"contracts/VulnerableContract.sol\":190:204  addressToValue */\n      0x00\n        /* \"contracts/VulnerableContract.sol\":190:216  addressToValue[msg.sender] */\n      dup1\n        /* \"contracts/VulnerableContract.sol\":205:215  msg.sender */\n      caller\n        /* \"contracts/VulnerableContract.sol\":190:216  addressToValue[msg.sender] */\n      0xffffffffffffffffffffffffffffffffffffffff\n      and\n      0xffffffffffffffffffffffffffffffffffffffff\n      and\n      dup2\n      mstore\n      0x20\n      add\n      swap1\n      dup2\n      mstore\n      0x20\n      add\n      0x00\n      keccak256\n        /* \"contracts/VulnerableContract.sol\":190:228  addressToValue[msg.sender] = msg.value */\n      dup2\n      swap1\n      sstore\n      pop\n        /* \"contracts/VulnerableContract.sol\":146:235  function deposit() public payable {... */\n      jump\t// out\n        /* \"#utility.yul\":88:205   */\n    tag_31:\n        /* \"#utility.yul\":197:198   */\n      0x00\n        /* \"#utility.yul\":194:195   */\n      dup1\n        /* \"#utility.yul\":187:199   */\n      revert\n        /* \"#utility.yul\":334:460   */\n    tag_33:\n        /* \"#utility.yul\":371:378   */\n      0x00\n        /* \"#utility.yul\":411:453   */\n      0xffffffffffffffffffffffffffffffffffffffff\n        /* \"#utility.yul\":404:409   */\n      dup3\n        /* \"#utility.yul\":400:454   */\n      and\n        /* \"#utility.yul\":389:454   */\n      swap1\n      pop\n        /* \"#utility.yul\":334:460   */\n      swap2\n      swap1\n      pop\n      jump\t// out\n        /* \"#utility.yul\":466:562   */\n    tag_34:\n        /* \"#utility.yul\":503:510   */\n      0x00\n        /* \"#utility.yul\":532:556   */\n      tag_53\n        /* \"#utility.yul\":550:555   */\n      dup3\n        /* \"#utility.yul\":532:556   */\n      tag_33\n      jump\t// in\n    tag_53:\n        /* \"#utility.yul\":521:556   */\n      swap1\n      pop\n        /* \"#utility.yul\":466:562   */\n      swap2\n      swap1\n      pop\n      jump\t// out\n        /* \"#utility.yul\":568:690   */\n    tag_35:\n        /* \"#utility.yul\":641:665   */\n      tag_55\n        /* \"#utility.yul\":659:664   */\n      dup2\n        /* \"#utility.yul\":641:665   */\n      tag_34\n      jump\t// in\n    tag_55:\n        /* \"#utility.yul\":634:639   */\n      dup2\n        /* \"#utility.yul\":631:666   */\n      eq\n        /* \"#utility.yul\":621:684   */\n      tag_56\n      jumpi\n        /* \"#utility.yul\":680:681   */\n      0x00\n        /* \"#utility.yul\":677:678   */\n      dup1\n        /* \"#utility.yul\":670:682   */\n      revert\n        /* \"#utility.yul\":621:684   */\n    tag_56:\n        /* \"#utility.yul\":568:690   */\n      pop\n      jump\t// out\n        /* \"#utility.yul\":696:835   */\n    tag_36:\n        /* \"#utility.yul\":742:747   */\n      0x00\n        /* \"#utility.yul\":780:786   */\n      dup2\n        /* \"#utility.yul\":767:787   */\n      calldataload\n        /* \"#utility.yul\":758:787   */\n      swap1\n      pop\n        /* \"#utility.yul\":796:829   */\n      tag_58\n        /* \"#utility.yul\":823:828   */\n      dup2\n        /* \"#utility.yul\":796:829   */\n      tag_35\n      jump\t// in\n    tag_58:\n        /* \"#utility.yul\":696:835   */\n      swap3\n      swap2\n      pop\n      pop\n      jump\t// out\n        /* \"#utility.yul\":841:1170   */\n    tag_11:\n        /* \"#utility.yul\":900:906   */\n      0x00\n        /* \"#utility.yul\":949:951   */\n      0x20\n        /* \"#utility.yul\":937:946   */\n      dup3\n        /* \"#utility.yul\":928:935   */\n      dup5\n        /* \"#utility.yul\":924:947   */\n      sub\n        /* \"#utility.yul\":920:952   */\n      slt\n        /* \"#utility.yul\":917:1036   */\n      iszero\n      tag_60\n      jumpi\n        /* \"#utility.yul\":955:1034   */\n      tag_61\n      tag_31\n      jump\t// in\n    tag_61:\n        /* \"#utility.yul\":917:1036   */\n    tag_60:\n        /* \"#utility.yul\":1075:1076   */\n      0x00\n        /* \"#utility.yul\":1100:1153   */\n      tag_62\n        /* \"#utility.yul\":1145:1152   */\n      dup5\n        /* \"#utility.yul\":1136:1142   */\n      dup3\n        /* \"#utility.yul\":1125:1134   */\n      dup6\n        /* \"#utility.yul\":1121:1143   */\n      add\n        /* \"#utility.yul\":1100:1153   */\n      tag_36\n      jump\t// in\n    tag_62:\n        /* \"#utility.yul\":1090:1153   */\n      swap2\n      pop\n        /* \"#utility.yul\":1046:1163   */\n      pop\n        /* \"#utility.yul\":841:1170   */\n      swap3\n      swap2\n      pop\n      pop\n      jump\t// out\n        /* \"#utility.yul\":1176:1253   */\n    tag_37:\n        /* \"#utility.yul\":1213:1220   */\n      0x00\n        /* \"#utility.yul\":1242:1247   */\n      dup2\n        /* \"#utility.yul\":1231:1247   */\n      swap1\n      pop\n        /* \"#utility.yul\":1176:1253   */\n      swap2\n      swap1\n      pop\n      jump\t// out\n        /* \"#utility.yul\":1259:1377   */\n    tag_38:\n        /* \"#utility.yul\":1346:1370   */\n      tag_65\n        /* \"#utility.yul\":1364:1369   */\n      dup2\n        /* \"#utility.yul\":1346:1370   */\n      tag_37\n      jump\t// in\n    tag_65:\n        /* \"#utility.yul\":1341:1344   */\n      dup3\n        /* \"#utility.yul\":1334:1371   */\n      mstore\n        /* \"#utility.yul\":1259:1377   */\n      pop\n      pop\n      jump\t// out\n        /* \"#utility.yul\":1383:1605   */\n    tag_14:\n        /* \"#utility.yul\":1476:1480   */\n      0x00\n        /* \"#utility.yul\":1514:1516   */\n      0x20\n        /* \"#utility.yul\":1503:1512   */\n      dup3\n        /* \"#utility.yul\":1499:1517   */\n      add\n        /* \"#utility.yul\":1491:1517   */\n      swap1\n      pop\n        /* \"#utility.yul\":1527:1598   */\n      tag_67\n        /* \"#utility.yul\":1595:1596   */\n      0x00\n        /* \"#utility.yul\":1584:1593   */\n      dup4\n        /* \"#utility.yul\":1580:1597   */\n      add\n        /* \"#utility.yul\":1571:1577   */\n      dup5\n        /* \"#utility.yul\":1527:1598   */\n      tag_38\n      jump\t// in\n    tag_67:\n        /* \"#utility.yul\":1383:1605   */\n      swap3\n      swap2\n      pop\n      pop\n      jump\t// out\n        /* \"#utility.yul\":1611:1780   */\n    tag_39:\n        /* \"#utility.yul\":1695:1706   */\n      0x00\n        /* \"#utility.yul\":1729:1735   */\n      dup3\n        /* \"#utility.yul\":1724:1727   */\n      dup3\n        /* \"#utility.yul\":1717:1736   */\n      mstore\n        /* \"#utility.yul\":1769:1773   */\n      0x20\n        /* \"#utility.yul\":1764:1767   */\n      dup3\n        /* \"#utility.yul\":1760:1774   */\n      add\n        /* \"#utility.yul\":1745:1774   */\n      swap1\n      pop\n        /* \"#utility.yul\":1611:1780   */\n      swap3\n      swap2\n      pop\n      pop\n      jump\t// out\n        /* \"#utility.yul\":1786:1952   */\n    tag_40:\n        /* \"#utility.yul\":1926:1944   */\n      0x4d75737420686176652066756e64732100000000000000000000000000000000\n        /* \"#utility.yul\":1922:1923   */\n      0x00\n        /* \"#utility.yul\":1914:1920   */\n      dup3\n        /* \"#utility.yul\":1910:1924   */\n      add\n        /* \"#utility.yul\":1903:1945   */\n      mstore\n        /* \"#utility.yul\":1786:1952   */\n      pop\n      jump\t// out\n        /* \"#utility.yul\":1958:2324   */\n    tag_41:\n        /* \"#utility.yul\":2100:2103   */\n      0x00\n        /* \"#utility.yul\":2121:2188   */\n      tag_71\n        /* \"#utility.yul\":2185:2187   */\n      0x10\n        /* \"#utility.yul\":2180:2183   */\n      dup4\n        /* \"#utility.yul\":2121:2188   */\n      tag_39\n      jump\t// in\n    tag_71:\n        /* \"#utility.yul\":2114:2188   */\n      swap2\n      pop\n        /* \"#utility.yul\":2197:2290   */\n      tag_72\n        /* \"#utility.yul\":2286:2289   */\n      dup3\n        /* \"#utility.yul\":2197:2290   */\n      tag_40\n      jump\t// in\n    tag_72:\n        /* \"#utility.yul\":2315:2317   */\n      0x20\n        /* \"#utility.yul\":2310:2313   */\n      dup3\n        /* \"#utility.yul\":2306:2318   */\n      add\n        /* \"#utility.yul\":2299:2318   */\n      swap1\n      pop\n        /* \"#utility.yul\":1958:2324   */\n      swap2\n      swap1\n      pop\n      jump\t// out\n        /* \"#utility.yul\":2330:2749   */\n    tag_20:\n        /* \"#utility.yul\":2496:2500   */\n      0x00\n        /* \"#utility.yul\":2534:2536   */\n      0x20\n        /* \"#utility.yul\":2523:2532   */\n      dup3\n        /* \"#utility.yul\":2519:2537   */\n      add\n        /* \"#utility.yul\":2511:2537   */\n      swap1\n      pop\n        /* \"#utility.yul\":2583:2592   */\n      dup2\n        /* \"#utility.yul\":2577:2581   */\n      dup2\n        /* \"#utility.yul\":2573:2593   */\n      sub\n        /* \"#utility.yul\":2569:2570   */\n      0x00\n        /* \"#utility.yul\":2558:2567   */\n      dup4\n        /* \"#utility.yul\":2554:2571   */\n      add\n        /* \"#utility.yul\":2547:2594   */\n      mstore\n        /* \"#utility.yul\":2611:2742   */\n      tag_74\n        /* \"#utility.yul\":2737:2741   */\n      dup2\n        /* \"#utility.yul\":2611:2742   */\n      tag_41\n      jump\t// in\n    tag_74:\n        /* \"#utility.yul\":2603:2742   */\n      swap1\n      pop\n        /* \"#utility.yul\":2330:2749   */\n      swap2\n      swap1\n      pop\n      jump\t// out\n        /* \"#utility.yul\":2755:2902   */\n    tag_42:\n        /* \"#utility.yul\":2856:2867   */\n      0x00\n        /* \"#utility.yul\":2893:2896   */\n      dup2\n        /* \"#utility.yul\":2878:2896   */\n      swap1\n      pop\n        /* \"#utility.yul\":2755:2902   */\n      swap3\n      swap2\n      pop\n      pop\n      jump\t// out\n        /* \"#utility.yul\":2908:3022   */\n    tag_43:\n      pop\n      jump\t// out\n        /* \"#utility.yul\":3028:3426   */\n    tag_44:\n        /* \"#utility.yul\":3187:3190   */\n      0x00\n        /* \"#utility.yul\":3208:3291   */\n      tag_78\n        /* \"#utility.yul\":3289:3290   */\n      0x00\n        /* \"#utility.yul\":3284:3287   */\n      dup4\n        /* \"#utility.yul\":3208:3291   */\n      tag_42\n      jump\t// in\n    tag_78:\n        /* \"#utility.yul\":3201:3291   */\n      swap2\n      pop\n        /* \"#utility.yul\":3300:3393   */\n      tag_79\n        /* \"#utility.yul\":3389:3392   */\n      dup3\n        /* \"#utility.yul\":3300:3393   */\n      tag_43\n      jump\t// in\n    tag_79:\n        /* \"#utility.yul\":3418:3419   */\n      0x00\n        /* \"#utility.yul\":3413:3416   */\n      dup3\n        /* \"#utility.yul\":3409:3420   */\n      add\n        /* \"#utility.yul\":3402:3420   */\n      swap1\n      pop\n        /* \"#utility.yul\":3028:3426   */\n      swap2\n      swap1\n      pop\n      jump\t// out\n        /* \"#utility.yul\":3432:3811   */\n    tag_22:\n        /* \"#utility.yul\":3616:3619   */\n      0x00\n        /* \"#utility.yul\":3638:3785   */\n      tag_81\n        /* \"#utility.yul\":3781:3784   */\n      dup3\n        /* \"#utility.yul\":3638:3785   */\n      tag_44\n      jump\t// in\n    tag_81:\n        /* \"#utility.yul\":3631:3785   */\n      swap2\n      pop\n        /* \"#utility.yul\":3802:3805   */\n      dup2\n        /* \"#utility.yul\":3795:3805   */\n      swap1\n      pop\n        /* \"#utility.yul\":3432:3811   */\n      swap2\n      swap1\n      pop\n      jump\t// out\n        /* \"#utility.yul\":3817:3983   */\n    tag_45:\n        /* \"#utility.yul\":3957:3975   */\n      0x5472616e73666572206661696c65642100000000000000000000000000000000\n        /* \"#utility.yul\":3953:3954   */\n      0x00\n        /* \"#utility.yul\":3945:3951   */\n      dup3\n        /* \"#utility.yul\":3941:3955   */\n      add\n        /* \"#utility.yul\":3934:3976   */\n      mstore\n        /* \"#utility.yul\":3817:3983   */\n      pop\n      jump\t// out\n        /* \"#utility.yul\":3989:4355   */\n    tag_46:\n        /* \"#utility.yul\":4131:4134   */\n      0x00\n        /* \"#utility.yul\":4152:4219   */\n      tag_84\n        /* \"#utility.yul\":4216:4218   */\n      0x10\n        /* \"#utility.yul\":4211:4214   */\n      dup4\n        /* \"#utility.yul\":4152:4219   */\n      tag_39\n      jump\t// in\n    tag_84:\n        /* \"#utility.yul\":4145:4219   */\n      swap2\n      pop\n        /* \"#utility.yul\":4228:4321   */\n      tag_85\n        /* \"#utility.yul\":4317:4320   */\n      dup3\n        /* \"#utility.yul\":4228:4321   */\n      tag_45\n      jump\t// in\n    tag_85:\n        /* \"#utility.yul\":4346:4348   */\n      0x20\n        /* \"#utility.yul\":4341:4344   */\n      dup3\n        /* \"#utility.yul\":4337:4349   */\n      add\n        /* \"#utility.yul\":4330:4349   */\n      swap1\n      pop\n        /* \"#utility.yul\":3989:4355   */\n      swap2\n      swap1\n      pop\n      jump\t// out\n        /* \"#utility.yul\":4361:4780   */\n    tag_28:\n        /* \"#utility.yul\":4527:4531   */\n      0x00\n        /* \"#utility.yul\":4565:4567   */\n      0x20\n        /* \"#utility.yul\":4554:4563   */\n      dup3\n        /* \"#utility.yul\":4550:4568   */\n      add\n        /* \"#utility.yul\":4542:4568   */\n      swap1\n      pop\n        /* \"#utility.yul\":4614:4623   */\n      dup2\n        /* \"#utility.yul\":4608:4612   */\n      dup2\n        /* \"#utility.yul\":4604:4624   */\n      sub\n        /* \"#utility.yul\":4600:4601   */\n      0x00\n        /* \"#utility.yul\":4589:4598   */\n      dup4\n        /* \"#utility.yul\":4585:4602   */\n      add\n        /* \"#utility.yul\":4578:4625   */\n      mstore\n        /* \"#utility.yul\":4642:4773   */\n      tag_87\n        /* \"#utility.yul\":4768:4772   */\n      dup2\n        /* \"#utility.yul\":4642:4773   */\n      tag_46\n      jump\t// in\n    tag_87:\n        /* \"#utility.yul\":4634:4773   */\n      swap1\n      pop\n        /* \"#utility.yul\":4361:4780   */\n      swap2\n      swap1\n      pop\n      jump\t// out\n\n    auxdata: 0xa2646970667358221220ca6c846c9a7d6c0d67337c960d8436e60600ea8ab0058fa044c54c82c12a735c64736f6c63430008180033\n}\n",
				"bytecode": {
					"linkReferences": {},
					"object": "608060405234801561000f575f80fd5b5061046a8061001d5f395ff3fe608060405260043610610033575f3560e01c80633ccfd60b14610037578063bff2e0951461004d578063d0e30db014610089575b5f80fd5b348015610042575f80fd5b5061004b610093565b005b348015610058575f80fd5b50610073600480360381019061006e91906102b7565b610202565b60405161008091906102fa565b60405180910390f35b610091610216565b005b5f805f3373ffffffffffffffffffffffffffffffffffffffff1673ffffffffffffffffffffffffffffffffffffffff1681526020019081526020015f205490505f8111610115576040517f08c379a000000000000000000000000000000000000000000000000000000000815260040161010c9061036d565b60405180910390fd5b5f3373ffffffffffffffffffffffffffffffffffffffff168260405161013a906103b8565b5f6040518083038185875af1925050503d805f8114610174576040519150601f19603f3d011682016040523d82523d5f602084013e610179565b606091505b50509050806101bd576040517f08c379a00000000000000000000000000000000000000000000000000000000081526004016101b490610416565b60405180910390fd5b5f805f3373ffffffffffffffffffffffffffffffffffffffff1673ffffffffffffffffffffffffffffffffffffffff1681526020019081526020015f20819055505050565b5f602052805f5260405f205f915090505481565b345f803373ffffffffffffffffffffffffffffffffffffffff1673ffffffffffffffffffffffffffffffffffffffff1681526020019081526020015f2081905550565b5f80fd5b5f73ffffffffffffffffffffffffffffffffffffffff82169050919050565b5f6102868261025d565b9050919050565b6102968161027c565b81146102a0575f80fd5b50565b5f813590506102b18161028d565b92915050565b5f602082840312156102cc576102cb610259565b5b5f6102d9848285016102a3565b91505092915050565b5f819050919050565b6102f4816102e2565b82525050565b5f60208201905061030d5f8301846102eb565b92915050565b5f82825260208201905092915050565b7f4d75737420686176652066756e647321000000000000000000000000000000005f82015250565b5f610357601083610313565b915061036282610323565b602082019050919050565b5f6020820190508181035f8301526103848161034b565b9050919050565b5f81905092915050565b50565b5f6103a35f8361038b565b91506103ae82610395565b5f82019050919050565b5f6103c282610398565b9150819050919050565b7f5472616e73666572206661696c656421000000000000000000000000000000005f82015250565b5f610400601083610313565b915061040b826103cc565b602082019050919050565b5f6020820190508181035f83015261042d816103f4565b905091905056fea2646970667358221220ca6c846c9a7d6c0d67337c960d8436e60600ea8ab0058fa044c54c82c12a735c64736f6c63430008180033",
					"opcodes": "PUSH1 0x80 PUSH1 0x40 MSTORE CALLVALUE DUP1 ISZERO PUSH2 0xF JUMPI PUSH0 DUP1 REVERT JUMPDEST POP PUSH2 0x46A DUP1 PUSH2 0x1D PUSH0 CODECOPY PUSH0 RETURN INVALID PUSH1 0x80 PUSH1 0x40 MSTORE PUSH1 0x4 CALLDATASIZE LT PUSH2 0x33 JUMPI PUSH0 CALLDATALOAD PUSH1 0xE0 SHR DUP1 PUSH4 0x3CCFD60B EQ PUSH2 0x37 JUMPI DUP1 PUSH4 0xBFF2E095 EQ PUSH2 0x4D JUMPI DUP1 PUSH4 0xD0E30DB0 EQ PUSH2 0x89 JUMPI JUMPDEST PUSH0 DUP1 REVERT JUMPDEST CALLVALUE DUP1 ISZERO PUSH2 0x42 JUMPI PUSH0 DUP1 REVERT JUMPDEST POP PUSH2 0x4B PUSH2 0x93 JUMP JUMPDEST STOP JUMPDEST CALLVALUE DUP1 ISZERO PUSH2 0x58 JUMPI PUSH0 DUP1 REVERT JUMPDEST POP PUSH2 0x73 PUSH1 0x4 DUP1 CALLDATASIZE SUB DUP2 ADD SWAP1 PUSH2 0x6E SWAP2 SWAP1 PUSH2 0x2B7 JUMP JUMPDEST PUSH2 0x202 JUMP JUMPDEST PUSH1 0x40 MLOAD PUSH2 0x80 SWAP2 SWAP1 PUSH2 0x2FA JUMP JUMPDEST PUSH1 0x40 MLOAD DUP1 SWAP2 SUB SWAP1 RETURN JUMPDEST PUSH2 0x91 PUSH2 0x216 JUMP JUMPDEST STOP JUMPDEST PUSH0 DUP1 PUSH0 CALLER PUSH20 0xFFFFFFFFFFFFFFFFFFFFFFFFFFFFFFFFFFFFFFFF AND PUSH20 0xFFFFFFFFFFFFFFFFFFFFFFFFFFFFFFFFFFFFFFFF AND DUP2 MSTORE PUSH1 0x20 ADD SWAP1 DUP2 MSTORE PUSH1 0x20 ADD PUSH0 KECCAK256 SLOAD SWAP1 POP PUSH0 DUP2 GT PUSH2 0x115 JUMPI PUSH1 0x40 MLOAD PUSH32 0x8C379A000000000000000000000000000000000000000000000000000000000 DUP2 MSTORE PUSH1 0x4 ADD PUSH2 0x10C SWAP1 PUSH2 0x36D JUMP JUMPDEST PUSH1 0x40 MLOAD DUP1 SWAP2 SUB SWAP1 REVERT JUMPDEST PUSH0 CALLER PUSH20 0xFFFFFFFFFFFFFFFFFFFFFFFFFFFFFFFFFFFFFFFF AND DUP3 PUSH1 0x40 MLOAD PUSH2 0x13A SWAP1 PUSH2 0x3B8 JUMP JUMPDEST PUSH0 PUSH1 0x40 MLOAD DUP1 DUP4 SUB DUP2 DUP6 DUP8 GAS CALL SWAP3 POP POP POP RETURNDATASIZE DUP1 PUSH0 DUP2 EQ PUSH2 0x174 JUMPI PUSH1 0x40 MLOAD SWAP2 POP PUSH1 0x1F NOT PUSH1 0x3F RETURNDATASIZE ADD AND DUP3 ADD PUSH1 0x40 MSTORE RETURNDATASIZE DUP3 MSTORE RETURNDATASIZE PUSH0 PUSH1 0x20 DUP5 ADD RETURNDATACOPY PUSH2 0x179 JUMP JUMPDEST PUSH1 0x60 SWAP2 POP JUMPDEST POP POP SWAP1 POP DUP1 PUSH2 0x1BD JUMPI PUSH1 0x40 MLOAD PUSH32 0x8C379A000000000000000000000000000000000000000000000000000000000 DUP2 MSTORE PUSH1 0x4 ADD PUSH2 0x1B4 SWAP1 PUSH2 0x416 JUMP JUMPDEST PUSH1 0x40 MLOAD DUP1 SWAP2 SUB SWAP1 REVERT JUMPDEST PUSH0 DUP1 PUSH0 CALLER PUSH20 0xFFFFFFFFFFFFFFFFFFFFFFFFFFFFFFFFFFFFFFFF AND PUSH20 0xFFFFFFFFFFFFFFFFFFFFFFFFFFFFFFFFFFFFFFFF AND DUP2 MSTORE PUSH1 0x20 ADD SWAP1 DUP2 MSTORE PUSH1 0x20 ADD PUSH0 KECCAK256 DUP2 SWAP1 SSTORE POP POP POP JUMP JUMPDEST PUSH0 PUSH1 0x20 MSTORE DUP1 PUSH0 MSTORE PUSH1 0x40 PUSH0 KECCAK256 PUSH0 SWAP2 POP SWAP1 POP SLOAD DUP2 JUMP JUMPDEST CALLVALUE PUSH0 DUP1 CALLER PUSH20 0xFFFFFFFFFFFFFFFFFFFFFFFFFFFFFFFFFFFFFFFF AND PUSH20 0xFFFFFFFFFFFFFFFFFFFFFFFFFFFFFFFFFFFFFFFF AND DUP2 MSTORE PUSH1 0x20 ADD SWAP1 DUP2 MSTORE PUSH1 0x20 ADD PUSH0 KECCAK256 DUP2 SWAP1 SSTORE POP JUMP JUMPDEST PUSH0 DUP1 REVERT JUMPDEST PUSH0 PUSH20 0xFFFFFFFFFFFFFFFFFFFFFFFFFFFFFFFFFFFFFFFF DUP3 AND SWAP1 POP SWAP2 SWAP1 POP JUMP JUMPDEST PUSH0 PUSH2 0x286 DUP3 PUSH2 0x25D JUMP JUMPDEST SWAP1 POP SWAP2 SWAP1 POP JUMP JUMPDEST PUSH2 0x296 DUP2 PUSH2 0x27C JUMP JUMPDEST DUP2 EQ PUSH2 0x2A0 JUMPI PUSH0 DUP1 REVERT JUMPDEST POP JUMP JUMPDEST PUSH0 DUP2 CALLDATALOAD SWAP1 POP PUSH2 0x2B1 DUP2 PUSH2 0x28D JUMP JUMPDEST SWAP3 SWAP2 POP POP JUMP JUMPDEST PUSH0 PUSH1 0x20 DUP3 DUP5 SUB SLT ISZERO PUSH2 0x2CC JUMPI PUSH2 0x2CB PUSH2 0x259 JUMP JUMPDEST JUMPDEST PUSH0 PUSH2 0x2D9 DUP5 DUP3 DUP6 ADD PUSH2 0x2A3 JUMP JUMPDEST SWAP2 POP POP SWAP3 SWAP2 POP POP JUMP JUMPDEST PUSH0 DUP2 SWAP1 POP SWAP2 SWAP1 POP JUMP JUMPDEST PUSH2 0x2F4 DUP2 PUSH2 0x2E2 JUMP JUMPDEST DUP3 MSTORE POP POP JUMP JUMPDEST PUSH0 PUSH1 0x20 DUP3 ADD SWAP1 POP PUSH2 0x30D PUSH0 DUP4 ADD DUP5 PUSH2 0x2EB JUMP JUMPDEST SWAP3 SWAP2 POP POP JUMP JUMPDEST PUSH0 DUP3 DUP3 MSTORE PUSH1 0x20 DUP3 ADD SWAP1 POP SWAP3 SWAP2 POP POP JUMP JUMPDEST PUSH32 0x4D75737420686176652066756E64732100000000000000000000000000000000 PUSH0 DUP3 ADD MSTORE POP JUMP JUMPDEST PUSH0 PUSH2 0x357 PUSH1 0x10 DUP4 PUSH2 0x313 JUMP JUMPDEST SWAP2 POP PUSH2 0x362 DUP3 PUSH2 0x323 JUMP JUMPDEST PUSH1 0x20 DUP3 ADD SWAP1 POP SWAP2 SWAP1 POP JUMP JUMPDEST PUSH0 PUSH1 0x20 DUP3 ADD SWAP1 POP DUP2 DUP2 SUB PUSH0 DUP4 ADD MSTORE PUSH2 0x384 DUP2 PUSH2 0x34B JUMP JUMPDEST SWAP1 POP SWAP2 SWAP1 POP JUMP JUMPDEST PUSH0 DUP2 SWAP1 POP SWAP3 SWAP2 POP POP JUMP JUMPDEST POP JUMP JUMPDEST PUSH0 PUSH2 0x3A3 PUSH0 DUP4 PUSH2 0x38B JUMP JUMPDEST SWAP2 POP PUSH2 0x3AE DUP3 PUSH2 0x395 JUMP JUMPDEST PUSH0 DUP3 ADD SWAP1 POP SWAP2 SWAP1 POP JUMP JUMPDEST PUSH0 PUSH2 0x3C2 DUP3 PUSH2 0x398 JUMP JUMPDEST SWAP2 POP DUP2 SWAP1 POP SWAP2 SWAP1 POP JUMP JUMPDEST PUSH32 0x5472616E73666572206661696C65642100000000000000000000000000000000 PUSH0 DUP3 ADD MSTORE POP JUMP JUMPDEST PUSH0 PUSH2 0x400 PUSH1 0x10 DUP4 PUSH2 0x313 JUMP JUMPDEST SWAP2 POP PUSH2 0x40B DUP3 PUSH2 0x3CC JUMP JUMPDEST PUSH1 0x20 DUP3 ADD SWAP1 POP SWAP2 SWAP1 POP JUMP JUMPDEST PUSH0 PUSH1 0x20 DUP3 ADD SWAP1 POP DUP2 DUP2 SUB PUSH0 DUP4 ADD MSTORE PUSH2 0x42D DUP2 PUSH2 0x3F4 JUMP JUMPDEST SWAP1 POP SWAP2 SWAP1 POP JUMP INVALID LOG2 PUSH5 0x6970667358 0x22 SLT KECCAK256 0xCA PUSH13 0x846C9A7D6C0D67337C960D8436 0xE6 MOD STOP 0xEA DUP11 0xB0 SDIV DUP16 LOG0 PREVRANDAO 0xC5 0x4C DUP3 0xC1 0x2A PUSH20 0x5C64736F6C634300081800330000000000000000 "
				},
				"gasEstimates": {
					"creation": {
						"codeDepositCost": "226000",
						"executionCost": "267",
						"totalCost": "226267"
					},
					"external": {
						"addressToValue(address)": "2801",
						"deposit()": "22341",
						"withdraw()": "infinite"
					}
				},
				"methodIdentifiers": {
					"addressToValue(address)": "bff2e095",
					"deposit()": "d0e30db0",
					"withdraw()": "3ccfd60b"
				}
			},
			"storageLayout": {
				"storage": [
					{
						"astId": 5,
						"contract": "contracts/VulnerableContract.sol:VulnerableContract",
						"label": "addressToValue",
						"offset": 0,
						"slot": "0",
						"type": "t_mapping(t_address,t_uint256)"
					}
				],
				"types": {
					"t_address": {
						"encoding": "inplace",
						"label": "address",
						"numberOfBytes": "20"
					},
					"t_mapping(t_address,t_uint256)": {
						"encoding": "mapping",
						"key": "t_address",
						"label": "mapping(address => uint256)",
						"numberOfBytes": "32",
						"value": "t_uint256"
					},
					"t_uint256": {
						"encoding": "inplace",
						"label": "uint256",
						"numberOfBytes": "32"
					}
				}
			},
			"userdoc": {
				"kind": "user",
				"methods": {},
				"version": 1
			}
		}
	}
}